{
  "_format": "hh-sol-artifact-1",
  "contractName": "SwapContract",
  "sourceName": "contracts/utils.sol",
  "abi": [
    {
      "inputs": [
        {
          "internalType": "address",
          "name": "_vault",
          "type": "address"
        }
      ],
      "stateMutability": "nonpayable",
      "type": "constructor"
    },
    {
      "inputs": [],
      "name": "Pool_Value",
      "outputs": [
        {
          "internalType": "uint256",
          "name": "",
          "type": "uint256"
        }
      ],
      "stateMutability": "view",
      "type": "function"
    },
    {
      "inputs": [
        {
          "internalType": "uint256",
          "name": "",
          "type": "uint256"
        }
      ],
      "name": "Proportion",
      "outputs": [
        {
          "internalType": "uint256",
          "name": "",
          "type": "uint256"
        }
      ],
      "stateMutability": "view",
      "type": "function"
    },
    {
      "inputs": [],
      "name": "USDC",
      "outputs": [
        {
          "internalType": "address",
          "name": "",
          "type": "address"
        }
      ],
      "stateMutability": "view",
      "type": "function"
    },
    {
      "inputs": [
        {
          "internalType": "uint256",
          "name": "",
          "type": "uint256"
        }
      ],
      "name": "assetPrices",
      "outputs": [
        {
          "internalType": "uint256",
          "name": "",
          "type": "uint256"
        }
      ],
      "stateMutability": "view",
      "type": "function"
    },
    {
      "inputs": [
        {
          "internalType": "uint256",
          "name": "amountIn",
          "type": "uint256"
        },
        {
          "internalType": "uint256",
          "name": "j",
          "type": "uint256"
        }
      ],
      "name": "buy_swap",
      "outputs": [
        {
          "internalType": "uint256",
          "name": "amountOut",
          "type": "uint256"
        }
      ],
      "stateMutability": "nonpayable",
      "type": "function"
    },
    {
      "inputs": [],
      "name": "getPriceFeedsLength",
      "outputs": [
        {
          "internalType": "uint256",
          "name": "",
          "type": "uint256"
        }
      ],
      "stateMutability": "view",
      "type": "function"
    },
    {
      "inputs": [
        {
          "internalType": "uint256",
          "name": "index",
          "type": "uint256"
        }
      ],
      "name": "getProportion",
      "outputs": [
        {
          "internalType": "uint256",
          "name": "",
          "type": "uint256"
        }
      ],
      "stateMutability": "view",
      "type": "function"
    },
    {
      "inputs": [],
      "name": "i",
      "outputs": [
        {
          "internalType": "uint256",
          "name": "",
          "type": "uint256"
        }
      ],
      "stateMutability": "view",
      "type": "function"
    },
    {
      "inputs": [],
      "name": "poolFee",
      "outputs": [
        {
          "internalType": "uint24",
          "name": "",
          "type": "uint24"
        }
      ],
      "stateMutability": "view",
      "type": "function"
    },
    {
      "inputs": [
        {
          "internalType": "uint256",
          "name": "",
          "type": "uint256"
        }
      ],
      "name": "priceFeeds",
      "outputs": [
        {
          "internalType": "contract AggregatorV3Interface",
          "name": "",
          "type": "address"
        }
      ],
      "stateMutability": "view",
      "type": "function"
    },
    {
      "inputs": [],
      "name": "routerAddress",
      "outputs": [
        {
          "internalType": "address",
          "name": "",
          "type": "address"
        }
      ],
      "stateMutability": "view",
      "type": "function"
    },
    {
      "inputs": [
        {
          "internalType": "address",
          "name": "recipient",
          "type": "address"
        },
        {
          "internalType": "uint256",
          "name": "_amountIn",
          "type": "uint256"
        },
        {
          "internalType": "uint256",
          "name": "j",
          "type": "uint256"
        }
      ],
      "name": "sell_swap",
      "outputs": [
        {
          "internalType": "uint256",
          "name": "",
          "type": "uint256"
        }
      ],
      "stateMutability": "nonpayable",
      "type": "function"
    },
    {
      "inputs": [
        {
          "internalType": "address",
          "name": "_vault",
          "type": "address"
        }
      ],
      "name": "setVaultAddress",
      "outputs": [],
      "stateMutability": "nonpayable",
      "type": "function"
    },
    {
      "inputs": [],
      "name": "swapRouter",
      "outputs": [
        {
          "internalType": "contract ISwapRouter",
          "name": "",
          "type": "address"
        }
      ],
      "stateMutability": "view",
      "type": "function"
    },
    {
      "inputs": [
        {
          "internalType": "uint256",
          "name": "",
          "type": "uint256"
        }
      ],
      "name": "tokenAddresses",
      "outputs": [
        {
          "internalType": "address",
          "name": "",
          "type": "address"
        }
      ],
      "stateMutability": "view",
      "type": "function"
    },
    {
      "inputs": [],
      "name": "tokenBalance",
      "outputs": [
        {
          "internalType": "uint256",
          "name": "",
          "type": "uint256"
        }
      ],
      "stateMutability": "view",
      "type": "function"
    },
    {
      "inputs": [
        {
          "internalType": "address",
          "name": "",
          "type": "address"
        }
      ],
      "name": "tokenBalances",
      "outputs": [
        {
          "internalType": "uint256",
          "name": "",
          "type": "uint256"
        }
      ],
      "stateMutability": "view",
      "type": "function"
    },
    {
      "inputs": [],
      "name": "tokenPrice",
      "outputs": [
        {
          "internalType": "uint256",
          "name": "",
          "type": "uint256"
        }
      ],
      "stateMutability": "view",
      "type": "function"
    },
    {
      "inputs": [],
      "name": "updateAssetValues",
      "outputs": [],
      "stateMutability": "nonpayable",
      "type": "function"
    },
    {
      "inputs": [],
      "name": "updatePoolValue",
      "outputs": [
        {
          "internalType": "uint256",
          "name": "",
          "type": "uint256"
        }
      ],
      "stateMutability": "nonpayable",
      "type": "function"
    },
    {
      "inputs": [],
      "name": "updateTokenBalance",
      "outputs": [],
      "stateMutability": "nonpayable",
      "type": "function"
    },
    {
      "inputs": [],
      "name": "usdcToken",
      "outputs": [
        {
          "internalType": "contract IERC20",
          "name": "",
          "type": "address"
        }
      ],
      "stateMutability": "view",
      "type": "function"
    },
    {
      "inputs": [],
      "name": "vaultAddress",
      "outputs": [
        {
          "internalType": "address",
          "name": "",
          "type": "address"
        }
      ],
      "stateMutability": "view",
      "type": "function"
    },
    {
      "inputs": [],
      "name": "vaultcontract",
      "outputs": [
        {
          "internalType": "contract VaultContract",
          "name": "",
          "type": "address"
        }
      ],
      "stateMutability": "view",
      "type": "function"
    }
  ],
  "bytecode": "0x60a0604052601180546001600160a01b031916733c499c542cef5e3811e1192ce70d8cc03d5c335917905573e592427a0aece92de3edee1f18e0157c058615646080523480156200004f57600080fd5b5060405162000f9d38038062000f9d8339810160408190526200007291620002c9565b600f80546001600160a01b0383166001600160a01b0319918216811790925560108054909116909117905560216006819055600781905560085560408051600380825260808201909252906020820160608036833750508151620000de92600292506020019062000248565b507372484b12719e23115761d5da1646945632979bb660026000815481106200010b576200010b620002fb565b9060005260206000200160006101000a8154816001600160a01b0302191690836001600160a01b0316021790555073df0fb4e4f928d2dcb76f438575fdd8682386e13c6002600181548110620001655762000165620002fb565b9060005260206000200160006101000a8154816001600160a01b0302191690836001600160a01b0316021790555073d9ffdb71ebe7496cc440152d43986aae0ab7666560028081548110620001be57620001be620002fb565b600091825260209091200180546001600160a01b03929092166001600160a01b031992831617905560038054821673d6df932a45c0f255f85145f286ea0b292b21c90b17905560048054821673b33eaad8d922b1083446dc23f610c2567fb5180f179055600580549091167353e0bca35ec356bd5dddfebbd1fc0fd03fabad391790555062000311565b828054828255906000526020600020908101928215620002a0579160200282015b82811115620002a057825182546001600160a01b0319166001600160a01b0390911617825560209092019160019091019062000269565b50620002ae929150620002b2565b5090565b5b80821115620002ae5760008155600101620002b3565b600060208284031215620002dc57600080fd5b81516001600160a01b0381168114620002f457600080fd5b9392505050565b634e487b7160e01b600052603260045260246000fd5b608051610c546200034960003960008181610307015281816104d0015281816105df01528181610837015261094f0152610c546000f3fe608060405234801561001057600080fd5b50600436106101585760003560e01c80635b6e7be2116100c35780639e1a4d191161007c5780639e1a4d19146102f9578063c31c9c0714610302578063dd0466e114610329578063e2b2d38614610331578063e5aa3d5814610344578063e5df8b841461034d57600080fd5b80635b6e7be2146102785780637d864854146102805780637ff9b5961461029357806382c248291461029c57806385535cc5146102a457806389a30271146102de57600080fd5b80633bdfa043116101155780633bdfa0431461020c5780633feca937146102165780634191c45b14610229578063430bf08a1461023c5780634dfe4d981461024f578063523fba7f1461025857600080fd5b8063089fe6aa1461015d57806310c7f0b91461017f57806311eac855146101aa57806320c5b0ee146101bd5780633268cc56146101de578063346e5c37146101f9575b600080fd5b610166610bb881565b60405162ffffff90911681526020015b60405180910390f35b61019261018d3660046109ef565b610360565b6040516001600160a01b039091168152602001610176565b601154610192906001600160a01b031681565b6101d06101cb3660046109ef565b61038a565b604051908152602001610176565b61019273e592427a0aece92de3edee1f18e0157c0586156481565b6101d06102073660046109ef565b6103a1565b6102146103be565b005b6101d0610224366004610a24565b6104a1565b6101d06102373660046109ef565b610664565b600f54610192906001600160a01b031681565b6101d060005481565b6101d0610266366004610a57565b60016020526000908152604090205481565b610214610674565b601054610192906001600160a01b031681565b6101d0600e5481565b6002546101d0565b6102146102b2366004610a57565b600f80546001600160a01b039092166001600160a01b0319928316811790915560108054909216179055565b610192733c499c542cef5e3811e1192ce70d8cc03d5c335981565b6101d0600d5481565b6101927f000000000000000000000000000000000000000000000000000000000000000081565b6101d0610763565b6101d061033f366004610a79565b61081d565b6101d0600c5481565b61019261035b3660046109ef565b6109cf565b6002818154811061037057600080fd5b6000918252602090912001546001600160a01b0316905081565b6006816003811061039a57600080fd5b0154905081565b6000600682600381106103b6576103b6610a9b565b015492915050565b6000600c555b600254600c54101561049f5760006002600c54815481106103e7576103e7610a9b565b9060005260206000200160009054906101000a90046001600160a01b03166001600160a01b031663feaf968c6040518163ffffffff1660e01b815260040160a060405180830381865afa158015610442573d6000803e3d6000fd5b505050506040513d601f19601f820116820180604052508101906104669190610acb565b505050915050806009600c546003811061048257610482610a9b565b015550600c805490600061049583610b31565b91905055506103c4565b565b600080600383600381106104b7576104b7610a9b565b015460405163095ea7b360e01b81526001600160a01b037f000000000000000000000000000000000000000000000000000000000000000081166004830152602482018790529091169150819063095ea7b3906044016020604051808303816000875af115801561052c573d6000803e3d6000fd5b505050506040513d601f19601f820116820180604052508101906105509190610b4a565b5060006040518061010001604052806003866003811061057257610572610a9b565b01546001600160a01b039081168252733c499c542cef5e3811e1192ce70d8cc03d5c33596020830152610bb8604080840191909152898216606084015242608084015260a08301899052600060c0840181905260e09093018390525163414bf38960e01b815292935090917f00000000000000000000000000000000000000000000000000000000000000009091169063414bf38990610616908590600401610b6c565b6020604051808303816000875af1158015610635573d6000803e3d6000fd5b505050506040513d601f19601f820116820180604052508101906106599190610bd5565b979650505050505050565b6009816003811061039a57600080fd5b6000600c555b600254600c54101561049f5760006003600c546003811061069d5761069d610a9b565b0154600f546040516370a0823160e01b81526001600160a01b0391821660048201529116906370a0823190602401602060405180830381865afa1580156106e8573d6000803e3d6000fd5b505050506040513d601f19601f8201168201806040525081019061070c9190610bd5565b905080600160006003600c546003811061072857610728610a9b565b01546001600160a01b031681526020810191909152604001600090812091909155600c805492509061075983610b31565b919050555061067a565b6000808055610770610674565b6107786103be565b6000600c555b600254600c54101561081657600160006003600c54600381106107a3576107a3610a9b565b01546001600160a01b03168152602081019190915260400160002054600d55600c54600990600381106107d8576107d8610a9b565b0154600e819055600d546107ec9190610bee565b6000546107f99190610c0b565b6000908155600c80549161080c83610b31565b919050555061077e565b5060005490565b60115460405163095ea7b360e01b81526001600160a01b037f00000000000000000000000000000000000000000000000000000000000000008116600483015260248201859052600092169063095ea7b3906044016020604051808303816000875af1158015610891573d6000803e3d6000fd5b505050506040513d601f19601f820116820180604052508101906108b59190610b4a565b506000604051806101000160405280733c499c542cef5e3811e1192ce70d8cc03d5c33596001600160a01b03168152602001600385600381106108fa576108fa610a9b565b01546001600160a01b039081168252610bb86020830152600f54811660408084019190915242606084015260808301889052600060a0840181905260c090930192909252905163414bf38960e01b81529192507f0000000000000000000000000000000000000000000000000000000000000000169063414bf38990610984908490600401610b6c565b6020604051808303816000875af11580156109a3573d6000803e3d6000fd5b505050506040513d601f19601f820116820180604052508101906109c79190610bd5565b949350505050565b600381600381106109df57600080fd5b01546001600160a01b0316905081565b600060208284031215610a0157600080fd5b5035919050565b80356001600160a01b0381168114610a1f57600080fd5b919050565b600080600060608486031215610a3957600080fd5b610a4284610a08565b95602085013595506040909401359392505050565b600060208284031215610a6957600080fd5b610a7282610a08565b9392505050565b60008060408385031215610a8c57600080fd5b50508035926020909101359150565b634e487b7160e01b600052603260045260246000fd5b805169ffffffffffffffffffff81168114610a1f57600080fd5b600080600080600060a08688031215610ae357600080fd5b610aec86610ab1565b9450602086015193506040860151925060608601519150610b0f60808701610ab1565b90509295509295909350565b634e487b7160e01b600052601160045260246000fd5b600060018201610b4357610b43610b1b565b5060010190565b600060208284031215610b5c57600080fd5b81518015158114610a7257600080fd5b81516001600160a01b03908116825260208084015182169083015260408084015162ffffff16908301526060808401518216908301526080808401519083015260a0838101519083015260c0808401519083015260e09283015116918101919091526101000190565b600060208284031215610be757600080fd5b5051919050565b8082028115828204841417610c0557610c05610b1b565b92915050565b80820180821115610c0557610c05610b1b56fea26469706673582212206fd8c3c72f3eaf7701ffc61af46664a24464f35da83b847d5c203d51164ef86d64736f6c63430008150033",
  "linkReferences": {},
  "deployedLinkReferences": {}
}