{
  "_format": "hh-sol-artifact-1",
  "contractName": "VaultContract",
  "sourceName": "contracts/C10Vault.sol",
  "abi": [
    {
      "inputs": [],
      "stateMutability": "nonpayable",
      "type": "constructor"
    },
    {
      "inputs": [
        {
          "internalType": "address",
          "name": "spender",
          "type": "address"
        },
        {
          "internalType": "uint256",
          "name": "allowance",
          "type": "uint256"
        },
        {
          "internalType": "uint256",
          "name": "needed",
          "type": "uint256"
        }
      ],
      "name": "ERC20InsufficientAllowance",
      "type": "error"
    },
    {
      "inputs": [
        {
          "internalType": "address",
          "name": "sender",
          "type": "address"
        },
        {
          "internalType": "uint256",
          "name": "balance",
          "type": "uint256"
        },
        {
          "internalType": "uint256",
          "name": "needed",
          "type": "uint256"
        }
      ],
      "name": "ERC20InsufficientBalance",
      "type": "error"
    },
    {
      "inputs": [
        {
          "internalType": "address",
          "name": "approver",
          "type": "address"
        }
      ],
      "name": "ERC20InvalidApprover",
      "type": "error"
    },
    {
      "inputs": [
        {
          "internalType": "address",
          "name": "receiver",
          "type": "address"
        }
      ],
      "name": "ERC20InvalidReceiver",
      "type": "error"
    },
    {
      "inputs": [
        {
          "internalType": "address",
          "name": "sender",
          "type": "address"
        }
      ],
      "name": "ERC20InvalidSender",
      "type": "error"
    },
    {
      "inputs": [
        {
          "internalType": "address",
          "name": "spender",
          "type": "address"
        }
      ],
      "name": "ERC20InvalidSpender",
      "type": "error"
    },
    {
      "inputs": [
        {
          "internalType": "address",
          "name": "owner",
          "type": "address"
        }
      ],
      "name": "OwnableInvalidOwner",
      "type": "error"
    },
    {
      "inputs": [
        {
          "internalType": "address",
          "name": "account",
          "type": "address"
        }
      ],
      "name": "OwnableUnauthorizedAccount",
      "type": "error"
    },
    {
      "anonymous": false,
      "inputs": [
        {
          "indexed": true,
          "internalType": "address",
          "name": "owner",
          "type": "address"
        },
        {
          "indexed": true,
          "internalType": "address",
          "name": "spender",
          "type": "address"
        },
        {
          "indexed": false,
          "internalType": "uint256",
          "name": "value",
          "type": "uint256"
        }
      ],
      "name": "Approval",
      "type": "event"
    },
    {
      "anonymous": false,
      "inputs": [
        {
          "indexed": true,
          "internalType": "address",
          "name": "previousOwner",
          "type": "address"
        },
        {
          "indexed": true,
          "internalType": "address",
          "name": "newOwner",
          "type": "address"
        }
      ],
      "name": "OwnershipTransferred",
      "type": "event"
    },
    {
      "anonymous": false,
      "inputs": [
        {
          "indexed": true,
          "internalType": "address",
          "name": "from",
          "type": "address"
        },
        {
          "indexed": true,
          "internalType": "address",
          "name": "to",
          "type": "address"
        },
        {
          "indexed": false,
          "internalType": "uint256",
          "name": "value",
          "type": "uint256"
        }
      ],
      "name": "Transfer",
      "type": "event"
    },
    {
      "inputs": [],
      "name": "C10Contract",
      "outputs": [
        {
          "internalType": "address",
          "name": "",
          "type": "address"
        }
      ],
      "stateMutability": "view",
      "type": "function"
    },
    {
      "inputs": [
        {
          "internalType": "address",
          "name": "owner",
          "type": "address"
        },
        {
          "internalType": "address",
          "name": "spender",
          "type": "address"
        }
      ],
      "name": "allowance",
      "outputs": [
        {
          "internalType": "uint256",
          "name": "",
          "type": "uint256"
        }
      ],
      "stateMutability": "view",
      "type": "function"
    },
    {
      "inputs": [
        {
          "internalType": "address",
          "name": "spender",
          "type": "address"
        },
        {
          "internalType": "uint256",
          "name": "value",
          "type": "uint256"
        }
      ],
      "name": "approve",
      "outputs": [
        {
          "internalType": "bool",
          "name": "",
          "type": "bool"
        }
      ],
      "stateMutability": "nonpayable",
      "type": "function"
    },
    {
      "inputs": [
        {
          "internalType": "address",
          "name": "account",
          "type": "address"
        }
      ],
      "name": "balanceOf",
      "outputs": [
        {
          "internalType": "uint256",
          "name": "",
          "type": "uint256"
        }
      ],
      "stateMutability": "view",
      "type": "function"
    },
    {
      "inputs": [
        {
          "internalType": "uint256",
          "name": "value",
          "type": "uint256"
        }
      ],
      "name": "burn",
      "outputs": [],
      "stateMutability": "nonpayable",
      "type": "function"
    },
    {
      "inputs": [
        {
          "internalType": "address",
          "name": "client",
          "type": "address"
        },
        {
          "internalType": "uint256",
          "name": "amount",
          "type": "uint256"
        }
      ],
      "name": "burn",
      "outputs": [],
      "stateMutability": "nonpayable",
      "type": "function"
    },
    {
      "inputs": [],
      "name": "burnAllTokens",
      "outputs": [],
      "stateMutability": "nonpayable",
      "type": "function"
    },
    {
      "inputs": [
        {
          "internalType": "address",
          "name": "account",
          "type": "address"
        },
        {
          "internalType": "uint256",
          "name": "value",
          "type": "uint256"
        }
      ],
      "name": "burnFrom",
      "outputs": [],
      "stateMutability": "nonpayable",
      "type": "function"
    },
    {
      "inputs": [],
      "name": "decimals",
      "outputs": [
        {
          "internalType": "uint8",
          "name": "",
          "type": "uint8"
        }
      ],
      "stateMutability": "view",
      "type": "function"
    },
    {
      "inputs": [
        {
          "internalType": "address",
          "name": "client",
          "type": "address"
        },
        {
          "internalType": "uint256",
          "name": "amount",
          "type": "uint256"
        }
      ],
      "name": "mint",
      "outputs": [],
      "stateMutability": "nonpayable",
      "type": "function"
    },
    {
      "inputs": [],
      "name": "name",
      "outputs": [
        {
          "internalType": "string",
          "name": "",
          "type": "string"
        }
      ],
      "stateMutability": "view",
      "type": "function"
    },
    {
      "inputs": [],
      "name": "owner",
      "outputs": [
        {
          "internalType": "address",
          "name": "",
          "type": "address"
        }
      ],
      "stateMutability": "view",
      "type": "function"
    },
    {
      "inputs": [],
      "name": "renounceOwnership",
      "outputs": [],
      "stateMutability": "nonpayable",
      "type": "function"
    },
    {
      "inputs": [
        {
          "internalType": "address",
          "name": "_C10Contract",
          "type": "address"
        }
      ],
      "name": "setC2ContractAsOwner",
      "outputs": [],
      "stateMutability": "nonpayable",
      "type": "function"
    },
    {
      "inputs": [],
      "name": "symbol",
      "outputs": [
        {
          "internalType": "string",
          "name": "",
          "type": "string"
        }
      ],
      "stateMutability": "view",
      "type": "function"
    },
    {
      "inputs": [
        {
          "internalType": "uint256",
          "name": "",
          "type": "uint256"
        }
      ],
      "name": "tokens",
      "outputs": [
        {
          "internalType": "address",
          "name": "",
          "type": "address"
        }
      ],
      "stateMutability": "view",
      "type": "function"
    },
    {
      "inputs": [],
      "name": "totalSupply",
      "outputs": [
        {
          "internalType": "uint256",
          "name": "",
          "type": "uint256"
        }
      ],
      "stateMutability": "view",
      "type": "function"
    },
    {
      "inputs": [
        {
          "internalType": "address",
          "name": "to",
          "type": "address"
        },
        {
          "internalType": "uint256",
          "name": "value",
          "type": "uint256"
        }
      ],
      "name": "transfer",
      "outputs": [
        {
          "internalType": "bool",
          "name": "",
          "type": "bool"
        }
      ],
      "stateMutability": "nonpayable",
      "type": "function"
    },
    {
      "inputs": [
        {
          "internalType": "address",
          "name": "from",
          "type": "address"
        },
        {
          "internalType": "address",
          "name": "to",
          "type": "address"
        },
        {
          "internalType": "uint256",
          "name": "value",
          "type": "uint256"
        }
      ],
      "name": "transferFrom",
      "outputs": [
        {
          "internalType": "bool",
          "name": "",
          "type": "bool"
        }
      ],
      "stateMutability": "nonpayable",
      "type": "function"
    },
    {
      "inputs": [
        {
          "internalType": "address",
          "name": "newOwner",
          "type": "address"
        }
      ],
      "name": "transferOwnership",
      "outputs": [],
      "stateMutability": "nonpayable",
      "type": "function"
    },
    {
      "inputs": [
        {
          "internalType": "address",
          "name": "utils_address",
          "type": "address"
        },
        {
          "internalType": "address",
          "name": "_tokenAddress",
          "type": "address"
        },
        {
          "internalType": "uint256",
          "name": "_amount",
          "type": "uint256"
        }
      ],
      "name": "withdraw",
      "outputs": [],
      "stateMutability": "nonpayable",
      "type": "function"
    },
    {
      "inputs": [],
      "name": "withdrawAllTokens",
      "outputs": [],
      "stateMutability": "nonpayable",
      "type": "function"
    }
  ],
  "bytecode": "0x60806040523480156200001157600080fd5b50336040518060400160405280600781526020016608664d2dcc8caf60cb1b81525060405180604001604052806002815260200161219960f11b81525081600390816200005f91906200020f565b5060046200006e82826200020f565b5050506001600160a01b038116620000a057604051631e4fbdf760e01b81526000600482015260240160405180910390fd5b620000ab8162000118565b50600780546001600160a01b031990811673d6df932a45c0f255f85145f286ea0b292b21c90b1790915560088054821673b33eaad8d922b1083446dc23f610c2567fb5180f179055600980549091167353e0bca35ec356bd5dddfebbd1fc0fd03fabad39179055620002db565b600580546001600160a01b038381166001600160a01b0319831681179093556040519116919082907f8be0079c531659141344cd1fd0a4f28419497f9722a3daafe3b4186f6b6457e090600090a35050565b634e487b7160e01b600052604160045260246000fd5b600181811c908216806200019557607f821691505b602082108103620001b657634e487b7160e01b600052602260045260246000fd5b50919050565b601f8211156200020a57600081815260208120601f850160051c81016020861015620001e55750805b601f850160051c820191505b818110156200020657828155600101620001f1565b5050505b505050565b81516001600160401b038111156200022b576200022b6200016a565b62000243816200023c845462000180565b84620001bc565b602080601f8311600181146200027b5760008415620002625750858301515b600019600386901b1c1916600185901b17855562000206565b600085815260208120601f198616915b82811015620002ac578886015182559484019460019091019084016200028b565b5085821015620002cb5787850151600019600388901b60f8161c191681555b5050505050600190811b01905550565b610d7180620002eb6000396000f3fe608060405234801561001057600080fd5b50600436106101425760003560e01c8063715018a6116100b85780639dc29fac1161007c5780639dc29fac1461029a578063a9059cbb146102ad578063c17e2aa1146102c0578063d9caed12146102c8578063dd62ed3e146102db578063f2fde38b1461031457600080fd5b8063715018a614610253578063748257021461025b57806379cc67901461026e5780638da5cb5b1461028157806395d89b411461029257600080fd5b8063280da6fa1161010a578063280da6fa146101c2578063313ce567146101ca57806340c10f19146101d957806342966c68146101ec5780634f64b2be146101ff57806370a082311461022a57600080fd5b806306fdde0314610147578063095ea7b31461016557806318160ddd146101885780631f3cb0971461019a57806323b872dd146101af575b600080fd5b61014f610327565b60405161015c9190610b30565b60405180910390f35b610178610173366004610b9a565b6103b9565b604051901515815260200161015c565b6002545b60405190815260200161015c565b6101ad6101a8366004610bc4565b6103d3565b005b6101786101bd366004610be6565b6103fa565b6101ad61041e565b6040516012815260200161015c565b6101ad6101e7366004610b9a565b610540565b6101ad6101fa366004610c22565b61054e565b61021261020d366004610c22565b610558565b6040516001600160a01b03909116815260200161015c565b61018c610238366004610bc4565b6001600160a01b031660009081526020819052604090205490565b6101ad610578565b600654610212906001600160a01b031681565b6101ad61027c366004610b9a565b61058c565b6005546001600160a01b0316610212565b61014f6105a1565b6101ad6102a8366004610b9a565b610597565b6101786102bb366004610b9a565b6105b0565b6101ad6105be565b6101ad6102d6366004610be6565b6105e3565b61018c6102e9366004610c3b565b6001600160a01b03918216600090815260016020908152604080832093909416825291909152205490565b6101ad610322366004610bc4565b61071b565b60606003805461033690610c6e565b80601f016020809104026020016040519081016040528092919081815260200182805461036290610c6e565b80156103af5780601f10610384576101008083540402835291602001916103af565b820191906000526020600020905b81548152906001019060200180831161039257829003601f168201915b5050505050905090565b6000336103c7818585610756565b60019150505b92915050565b600680546001600160a01b0319166001600160a01b0383161790556103f78161071b565b50565b600033610408858285610768565b6104138585856107e7565b506001949350505050565b60005b60038110156103f75760006007826003811061043f5761043f610ca8565b01546040516370a0823160e01b81523060048201526001600160a01b03909116915060009082906370a0823190602401602060405180830381865afa15801561048c573d6000803e3d6000fd5b505050506040513d601f19601f820116820180604052508101906104b09190610cbe565b9050801561052b5760405163a9059cbb60e01b8152336004820152602481018290526001600160a01b0383169063a9059cbb906044016020604051808303816000875af1158015610505573d6000803e3d6000fd5b505050506040513d601f19601f820116820180604052508101906105299190610cd7565b505b5050808061053890610d0f565b915050610421565b61054a8282610846565b5050565b6103f7338261087c565b6007816003811061056857600080fd5b01546001600160a01b0316905081565b6105806108b2565b61058a60006108df565b565b610597823383610768565b61054a828261087c565b60606004805461033690610c6e565b6000336103c78185856107e7565b6105c66108b2565b61058a6105db6005546001600160a01b031690565b60025461087c565b816105f2565b60405180910390fd5b6040516370a0823160e01b815230600482015282906001600160a01b038316906370a0823190602401602060405180830381865afa158015610638573d6000803e3d6000fd5b505050506040513d601f19601f8201168201806040525081019061065c9190610cbe565b10156106a15760405162461bcd60e51b8152602060048201526014602482015273496e73756666696369656e742062616c616e636560601b60448201526064016105e9565b60405163a9059cbb60e01b81526001600160a01b0385811660048301526024820184905282169063a9059cbb906044016020604051808303816000875af11580156106f0573d6000803e3d6000fd5b505050506040513d601f19601f820116820180604052508101906107149190610cd7565b5050505050565b6107236108b2565b6001600160a01b03811661074d57604051631e4fbdf760e01b8152600060048201526024016105e9565b6103f7816108df565b6107638383836001610931565b505050565b6001600160a01b038381166000908152600160209081526040808320938616835292905220546000198110156107e157818110156107d257604051637dc7a0d960e11b81526001600160a01b038416600482015260248101829052604481018390526064016105e9565b6107e184848484036000610931565b50505050565b6001600160a01b03831661081157604051634b637e8f60e11b8152600060048201526024016105e9565b6001600160a01b03821661083b5760405163ec442f0560e01b8152600060048201526024016105e9565b610763838383610a06565b6001600160a01b0382166108705760405163ec442f0560e01b8152600060048201526024016105e9565b61054a60008383610a06565b6001600160a01b0382166108a657604051634b637e8f60e11b8152600060048201526024016105e9565b61054a82600083610a06565b6005546001600160a01b0316331461058a5760405163118cdaa760e01b81523360048201526024016105e9565b600580546001600160a01b038381166001600160a01b0319831681179093556040519116919082907f8be0079c531659141344cd1fd0a4f28419497f9722a3daafe3b4186f6b6457e090600090a35050565b6001600160a01b03841661095b5760405163e602df0560e01b8152600060048201526024016105e9565b6001600160a01b03831661098557604051634a1406b160e11b8152600060048201526024016105e9565b6001600160a01b03808516600090815260016020908152604080832093871683529290522082905580156107e157826001600160a01b0316846001600160a01b03167f8c5be1e5ebec7d5bd14f71427d1e84f3dd0314c0f7b2291e5b200ac8c7c3b925846040516109f891815260200190565b60405180910390a350505050565b6001600160a01b038316610a31578060026000828254610a269190610d28565b90915550610aa39050565b6001600160a01b03831660009081526020819052604090205481811015610a845760405163391434e360e21b81526001600160a01b038516600482015260248101829052604481018390526064016105e9565b6001600160a01b03841660009081526020819052604090209082900390555b6001600160a01b038216610abf57600280548290039055610ade565b6001600160a01b03821660009081526020819052604090208054820190555b816001600160a01b0316836001600160a01b03167fddf252ad1be2c89b69c2b068fc378daa952ba7f163c4a11628f55a4df523b3ef83604051610b2391815260200190565b60405180910390a3505050565b600060208083528351808285015260005b81811015610b5d57858101830151858201604001528201610b41565b506000604082860101526040601f19601f8301168501019250505092915050565b80356001600160a01b0381168114610b9557600080fd5b919050565b60008060408385031215610bad57600080fd5b610bb683610b7e565b946020939093013593505050565b600060208284031215610bd657600080fd5b610bdf82610b7e565b9392505050565b600080600060608486031215610bfb57600080fd5b610c0484610b7e565b9250610c1260208501610b7e565b9150604084013590509250925092565b600060208284031215610c3457600080fd5b5035919050565b60008060408385031215610c4e57600080fd5b610c5783610b7e565b9150610c6560208401610b7e565b90509250929050565b600181811c90821680610c8257607f821691505b602082108103610ca257634e487b7160e01b600052602260045260246000fd5b50919050565b634e487b7160e01b600052603260045260246000fd5b600060208284031215610cd057600080fd5b5051919050565b600060208284031215610ce957600080fd5b81518015158114610bdf57600080fd5b634e487b7160e01b600052601160045260246000fd5b600060018201610d2157610d21610cf9565b5060010190565b808201808211156103cd576103cd610cf956fea2646970667358221220a13d35485c9a8a589a350a5415781803b3dc2f85f978831c97496179f3b0d2b664736f6c63430008150033",
  "linkReferences": {},
  "deployedLinkReferences": {}
}