{
  "_format": "hh-sol-artifact-1",
  "contractName": "C3ETFContract",
  "sourceName": "contracts/C10ETF.sol",
  "abi": [
    {
      "inputs": [
        {
          "internalType": "address",
          "name": "_vaultcontract",
          "type": "address"
        },
        {
          "internalType": "address",
          "name": "_swapcontract",
          "type": "address"
        }
      ],
      "stateMutability": "nonpayable",
      "type": "constructor"
    },
    {
      "inputs": [],
      "name": "AUM",
      "outputs": [
        {
          "internalType": "uint256",
          "name": "",
          "type": "uint256"
        }
      ],
      "stateMutability": "view",
      "type": "function"
    },
    {
      "inputs": [],
      "name": "AUM_In_Usd",
      "outputs": [
        {
          "internalType": "uint256",
          "name": "",
          "type": "uint256"
        }
      ],
      "stateMutability": "view",
      "type": "function"
    },
    {
      "inputs": [],
      "name": "C10_Price",
      "outputs": [
        {
          "internalType": "uint256",
          "name": "",
          "type": "uint256"
        }
      ],
      "stateMutability": "view",
      "type": "function"
    },
    {
      "inputs": [],
      "name": "C10_Supply",
      "outputs": [
        {
          "internalType": "uint256",
          "name": "",
          "type": "uint256"
        }
      ],
      "stateMutability": "view",
      "type": "function"
    },
    {
      "inputs": [],
      "name": "USDC",
      "outputs": [
        {
          "internalType": "address",
          "name": "",
          "type": "address"
        }
      ],
      "stateMutability": "view",
      "type": "function"
    },
    {
      "inputs": [],
      "name": "amountOfTokenToWithdraw",
      "outputs": [
        {
          "internalType": "uint256",
          "name": "",
          "type": "uint256"
        }
      ],
      "stateMutability": "view",
      "type": "function"
    },
    {
      "inputs": [],
      "name": "amount_left",
      "outputs": [
        {
          "internalType": "uint256",
          "name": "",
          "type": "uint256"
        }
      ],
      "stateMutability": "view",
      "type": "function"
    },
    {
      "inputs": [
        {
          "internalType": "uint256",
          "name": "c2_quantity",
          "type": "uint256"
        }
      ],
      "name": "buyETF_Final",
      "outputs": [],
      "stateMutability": "nonpayable",
      "type": "function"
    },
    {
      "inputs": [],
      "name": "contractBalance",
      "outputs": [
        {
          "internalType": "uint256",
          "name": "",
          "type": "uint256"
        }
      ],
      "stateMutability": "view",
      "type": "function"
    },
    {
      "inputs": [],
      "name": "current_price",
      "outputs": [
        {
          "internalType": "uint256",
          "name": "",
          "type": "uint256"
        }
      ],
      "stateMutability": "view",
      "type": "function"
    },
    {
      "inputs": [],
      "name": "getTotalSupply",
      "outputs": [
        {
          "internalType": "uint256",
          "name": "",
          "type": "uint256"
        }
      ],
      "stateMutability": "view",
      "type": "function"
    },
    {
      "inputs": [],
      "name": "get_AUM",
      "outputs": [],
      "stateMutability": "nonpayable",
      "type": "function"
    },
    {
      "inputs": [],
      "name": "get_c10",
      "outputs": [
        {
          "internalType": "uint256",
          "name": "",
          "type": "uint256"
        }
      ],
      "stateMutability": "view",
      "type": "function"
    },
    {
      "inputs": [],
      "name": "get_current_price",
      "outputs": [],
      "stateMutability": "nonpayable",
      "type": "function"
    },
    {
      "inputs": [],
      "name": "get_price",
      "outputs": [
        {
          "internalType": "uint256",
          "name": "",
          "type": "uint256"
        }
      ],
      "stateMutability": "nonpayable",
      "type": "function"
    },
    {
      "inputs": [
        {
          "internalType": "uint256",
          "name": "usdc",
          "type": "uint256"
        }
      ],
      "name": "ifswapworks",
      "outputs": [],
      "stateMutability": "nonpayable",
      "type": "function"
    },
    {
      "inputs": [],
      "name": "price",
      "outputs": [
        {
          "internalType": "uint256",
          "name": "",
          "type": "uint256"
        }
      ],
      "stateMutability": "view",
      "type": "function"
    },
    {
      "inputs": [
        {
          "internalType": "uint256",
          "name": "c2_quantity",
          "type": "uint256"
        }
      ],
      "name": "sellETF_Final",
      "outputs": [],
      "stateMutability": "nonpayable",
      "type": "function"
    },
    {
      "inputs": [
        {
          "internalType": "address",
          "name": "_vault",
          "type": "address"
        }
      ],
      "name": "setVaultAddress",
      "outputs": [],
      "stateMutability": "nonpayable",
      "type": "function"
    },
    {
      "inputs": [],
      "name": "swapAddress",
      "outputs": [
        {
          "internalType": "address",
          "name": "",
          "type": "address"
        }
      ],
      "stateMutability": "view",
      "type": "function"
    },
    {
      "inputs": [],
      "name": "swapcontract",
      "outputs": [
        {
          "internalType": "contract SwapContract",
          "name": "",
          "type": "address"
        }
      ],
      "stateMutability": "view",
      "type": "function"
    },
    {
      "inputs": [],
      "name": "usdcAmount",
      "outputs": [
        {
          "internalType": "uint256",
          "name": "",
          "type": "uint256"
        }
      ],
      "stateMutability": "view",
      "type": "function"
    },
    {
      "inputs": [],
      "name": "usdcToken",
      "outputs": [
        {
          "internalType": "contract IERC20",
          "name": "",
          "type": "address"
        }
      ],
      "stateMutability": "view",
      "type": "function"
    },
    {
      "inputs": [],
      "name": "vaultAddress",
      "outputs": [
        {
          "internalType": "address",
          "name": "",
          "type": "address"
        }
      ],
      "stateMutability": "view",
      "type": "function"
    },
    {
      "inputs": [],
      "name": "vaultcontract",
      "outputs": [
        {
          "internalType": "contract VaultContract",
          "name": "",
          "type": "address"
        }
      ],
      "stateMutability": "view",
      "type": "function"
    },
    {
      "inputs": [
        {
          "internalType": "address",
          "name": "thirdPartyAddress",
          "type": "address"
        },
        {
          "internalType": "address",
          "name": "vault_address",
          "type": "address"
        },
        {
          "internalType": "uint256",
          "name": "amount_to_sell",
          "type": "uint256"
        }
      ],
      "name": "withdrawFromContract",
      "outputs": [],
      "stateMutability": "nonpayable",
      "type": "function"
    }
  ],
  "bytecode": "0x6080604052600c80546001600160a01b031916733c499c542cef5e3811e1192ce70d8cc03d5c335917905534801561003657600080fd5b5060405161146a38038061146a833981016040819052610055916100bc565b600680546001600160a01b039384166001600160a01b03199182168117909255600d8054821690921790915560058054929093169181168217909255600e80549092161790556100ef565b80516001600160a01b03811681146100b757600080fd5b919050565b600080604083850312156100cf57600080fd5b6100d8836100a0565b91506100e6602084016100a0565b90509250929050565b61136c806100fe6000396000f3fe608060405234801561001057600080fd5b506004361061018e5760003560e01c80637d864854116100de578063a1dc57d111610097578063ad9db20d11610071578063ad9db20d14610301578063c4e41b2214610314578063fbe53dde1461031c578063fd82983b1461032f57600080fd5b8063a1dc57d1146102e6578063a702efcc146102ef578063ab2b3137146102f857600080fd5b80637d8648541461026357806380f6d7821461027657806385535cc51461028957806389a30271146102b95780638b7afe2e146102d4578063a035b1fe146102dd57600080fd5b8063430bf08a1161014b57806357edade91161012557806357edade914610237578063676a38d71461024057806367799d0b146102485780637ab58fe21461025057600080fd5b8063430bf08a146102085780634e4173cc1461021b5780635521054c1461022457600080fd5b80630755621e146101935780630b04549b146101af57806311eac855146101b957806311f37ceb146101e45780631cc32468146101ec5780632c0cf785146101ff575b600080fd5b61019c600a5481565b6040519081526020015b60405180910390f35b6101b7610338565b005b600c546101cc906001600160a01b031681565b6040516001600160a01b0390911681526020016101a6565b61019c6103bf565b600e546101cc906001600160a01b031681565b61019c600b5481565b6006546101cc906001600160a01b031681565b61019c60015481565b6101b76102323660046111c7565b610542565b61019c60035481565b6101b761097e565b61019c610a7e565b6101b761025e3660046111c7565b610b15565b600d546101cc906001600160a01b031681565b6005546101cc906001600160a01b031681565b6101b76102973660046111f8565b600d80546001600160a01b0319166001600160a01b0392909216919091179055565b6101cc733c499c542cef5e3811e1192ce70d8cc03d5c335981565b61019c60095481565b61019c60085481565b61019c60025481565b61019c60075481565b61019c60045481565b6101b761030f3660046111c7565b610bca565b61019c610f34565b6101b761032a36600461121c565b610fa2565b61019c60005481565b600e546040805163dd0466e160e01b8152905168056bc75e2d63100000926001600160a01b03169163dd0466e191600480830192602092919082900301816000875af115801561038c573d6000803e3d6000fd5b505050506040513d601f19601f820116820180604052508101906103b0919061125d565b6103ba919061128c565b600155565b60006008819055600e546040805163dd0466e160e01b815290516001600160a01b039092169163dd0466e191600480820192602092909190829003018187875af1158015610411573d6000803e3d6000fd5b505050506040513d601f19601f82011682018060405250810190610435919061125d565b600055600d54604080516318160ddd60e01b815290516001600160a01b03909216916318160ddd916004808201926020929091908290030181865afa158015610482573d6000803e3d6000fd5b505050506040513d601f19601f820116820180604052508101906104a6919061125d565b6002556000541580156104b95750600254155b156104c557506103e890565b60006002541161051c5760405162461bcd60e51b815260206004820152601960248201527f4331305f537570706c792063616e6e6f74206265207a65726f0000000000000060448201526064015b60405180910390fd5b606460025460005461052e919061128c565b610538919061128c565b6008819055919050565b61054a6103bf565b600381905561055990826112ae565b6007819055600c546040516370a0823160e01b81523360048201526001600160a01b03909116906370a0823190602401602060405180830381865afa1580156105a6573d6000803e3d6000fd5b505050506040513d601f19601f820116820180604052508101906105ca919061125d565b10156106185760405162461bcd60e51b815260206004820152601960248201527f4e6f7420656e6f756768205553444320696e2077616c6c6574000000000000006044820152606401610513565b600754600c54600554604051636eb1769f60e11b81523360048201526001600160a01b03918216602482015291169063dd62ed3e90604401602060405180830381865afa15801561066d573d6000803e3d6000fd5b505050506040513d601f19601f82011682018060405250810190610691919061125d565b10156106fd5760405162461bcd60e51b815260206004820152603560248201527f506c6561736520617070726f76652074686520636f6e747261637420746f20736044820152743832b732103cb7bab9102aa9a221903334b939ba1760591b6064820152608401610513565b600c546005546007546040516323b872dd60e01b81523360048201526001600160a01b03928316602482015260448101919091529116906323b872dd906064016020604051808303816000875af115801561075c573d6000803e3d6000fd5b505050506040513d601f19601f8201168201806040525081019061078091906112cb565b6107c35760405162461bcd60e51b81526020600482015260146024820152731554d110c81d1c985b9cd9995c8819985a5b195960621b6044820152606401610513565b60005b600381101561087c57600e546007546001600160a01b039091169063e2b2d386906064906107f59060216112ae565b6107ff919061128c565b836040518363ffffffff1660e01b8152600401610826929190918252602082015260400190565b6020604051808303816000875af1158015610845573d6000803e3d6000fd5b505050506040513d601f19601f82011682018060405250810190610869919061125d565b5080610874816112ed565b9150506107c6565b50600e60009054906101000a90046001600160a01b03166001600160a01b031663dd0466e16040518163ffffffff1660e01b81526004016020604051808303816000875af11580156108d2573d6000803e3d6000fd5b505050506040513d601f19601f820116820180604052508101906108f6919061125d565b600055600d546001600160a01b03166340c10f193361091d84670de0b6b3a76400006112ae565b6040516001600160e01b031960e085901b1681526001600160a01b0390921660048301526024820152604401600060405180830381600087803b15801561096357600080fd5b505af1158015610977573d6000803e3d6000fd5b5050505050565b600d54604080516318160ddd60e01b815290516064926001600160a01b0316916318160ddd9160048083019260209291908290030181865afa1580156109c8573d6000803e3d6000fd5b505050506040513d601f19601f820116820180604052508101906109ec919061125d565b600e60009054906101000a90046001600160a01b03166001600160a01b031663dd0466e16040518163ffffffff1660e01b81526004016020604051808303816000875af1158015610a41573d6000803e3d6000fd5b505050506040513d601f19601f82011682018060405250810190610a65919061125d565b610a6f919061128c565b610a79919061128c565b600455565b60006064600d60009054906101000a90046001600160a01b03166001600160a01b03166318160ddd6040518163ffffffff1660e01b8152600401602060405180830381865afa158015610ad5573d6000803e3d6000fd5b505050506040513d601f19601f82011682018060405250810190610af9919061125d565b600054610b06919061128c565b610b10919061128c565b905090565b60005b6003811015610bc657600e546001600160a01b031663e2b2d3866064610b3f8560216112ae565b610b49919061128c565b836040518363ffffffff1660e01b8152600401610b70929190918252602082015260400190565b6020604051808303816000875af1158015610b8f573d6000803e3d6000fd5b505050506040513d601f19601f82011682018060405250810190610bb3919061125d565b5080610bbe816112ed565b915050610b18565b5050565b33610bd36103bf565b6003819055610be290836112ae565b60075560005b6003811015610e1457600e54604051634191c45b60e01b8152600481018390526001600160a01b0390911690634191c45b90602401602060405180830381865afa158015610c3a573d6000803e3d6000fd5b505050506040513d601f19601f82011682018060405250810190610c5e919061125d565b60646007546021610c6f91906112ae565b610c79919061128c565b610c8c9068056bc75e2d631000006112ae565b610c96919061128c565b600b55600d54600554600e54604051633977e2e160e21b8152600481018590526001600160a01b039384169363d9caed1293811692169063e5df8b8490602401602060405180830381865afa158015610cf3573d6000803e3d6000fd5b505050506040513d601f19601f82011682018060405250810190610d179190611306565b600b546040516001600160e01b031960e086901b1681526001600160a01b0393841660048201529290911660248301526044820152606401600060405180830381600087803b158015610d6957600080fd5b505af1158015610d7d573d6000803e3d6000fd5b5050600e54600b54604051633feca93760e01b81523060048201526024810191909152604481018590526001600160a01b039091169250633feca93791506064016020604051808303816000875af1158015610ddd573d6000803e3d6000fd5b505050506040513d601f19601f82011682018060405250810190610e01919061125d565b5080610e0c816112ed565b915050610be8565b50600654600754610e329183916001600160a01b0390911690610fa2565b600e60009054906101000a90046001600160a01b03166001600160a01b031663dd0466e16040518163ffffffff1660e01b81526004016020604051808303816000875af1158015610e87573d6000803e3d6000fd5b505050506040513d601f19601f82011682018060405250810190610eab919061125d565b600055600d546001600160a01b0316639dc29fac33610ed285670de0b6b3a76400006112ae565b6040516001600160e01b031960e085901b1681526001600160a01b0390921660048301526024820152604401600060405180830381600087803b158015610f1857600080fd5b505af1158015610f2c573d6000803e3d6000fd5b505050505050565b600d54604080516318160ddd60e01b815290516000926001600160a01b0316916318160ddd9160048083019260209291908290030181865afa158015610f7e573d6000803e3d6000fd5b505050506040513d601f19601f82011682018060405250810190610b10919061125d565b6001600160a01b038316610ff85760405162461bcd60e51b815260206004820181905260248201527f54686972642d70617274792061646472657373206e6f7420736574207965742e6044820152606401610513565b600c546040516370a0823160e01b81523060048201526001600160a01b03909116906370a0823190602401602060405180830381865afa158015611040573d6000803e3d6000fd5b505050506040513d601f19601f82011682018060405250810190611064919061125d565b600981905581101561118e578060095461107e9190611323565b600a819055600c5460405163a9059cbb60e01b81526001600160a01b038581166004830152602482019390935291169063a9059cbb906044016020604051808303816000875af11580156110d6573d6000803e3d6000fd5b505050506040513d601f19601f820116820180604052508101906110fa91906112cb565b50600a5460095461110b9190611323565b6009819055600c5460405163a9059cbb60e01b81526001600160a01b038681166004830152602482019390935291169063a9059cbb906044015b6020604051808303816000875af1158015611164573d6000803e3d6000fd5b505050506040513d601f19601f8201168201806040525081019061118891906112cb565b50505050565b600c5460405163a9059cbb60e01b81526001600160a01b038581166004830152602482018490529091169063a9059cbb90604401611145565b6000602082840312156111d957600080fd5b5035919050565b6001600160a01b03811681146111f557600080fd5b50565b60006020828403121561120a57600080fd5b8135611215816111e0565b9392505050565b60008060006060848603121561123157600080fd5b833561123c816111e0565b9250602084013561124c816111e0565b929592945050506040919091013590565b60006020828403121561126f57600080fd5b5051919050565b634e487b7160e01b600052601160045260246000fd5b6000826112a957634e487b7160e01b600052601260045260246000fd5b500490565b80820281158282048414176112c5576112c5611276565b92915050565b6000602082840312156112dd57600080fd5b8151801515811461121557600080fd5b6000600182016112ff576112ff611276565b5060010190565b60006020828403121561131857600080fd5b8151611215816111e0565b818103818111156112c5576112c561127656fea2646970667358221220d616a538c110f69841b8b4c8efe7d0b73de639d1b45fea18ddc35e3cf4fd465564736f6c63430008150033",
  "linkReferences": {},
  "deployedLinkReferences": {}
}