{"contracts/utils.sol":{"SwapContract":{"abi":[{"inputs":[{"internalType":"address","name":"_vault","type":"address"}],"stateMutability":"nonpayable","type":"constructor"},{"inputs":[],"name":"Pool_Value","outputs":[{"internalType":"uint256","name":"","type":"uint256"}],"stateMutability":"view","type":"function"},{"inputs":[{"internalType":"uint256","name":"","type":"uint256"}],"name":"Proportion","outputs":[{"internalType":"uint256","name":"","type":"uint256"}],"stateMutability":"view","type":"function"},{"inputs":[],"name":"USDC","outputs":[{"internalType":"address","name":"","type":"address"}],"stateMutability":"view","type":"function"},{"inputs":[{"internalType":"uint256","name":"","type":"uint256"}],"name":"assetPrices","outputs":[{"internalType":"uint256","name":"","type":"uint256"}],"stateMutability":"view","type":"function"},{"inputs":[{"internalType":"uint256","name":"amountIn","type":"uint256"},{"internalType":"uint256","name":"j","type":"uint256"}],"name":"buy_swap","outputs":[{"internalType":"uint256","name":"amountOut","type":"uint256"}],"stateMutability":"nonpayable","type":"function"},{"inputs":[],"name":"getPriceFeedsLength","outputs":[{"internalType":"uint256","name":"","type":"uint256"}],"stateMutability":"view","type":"function"},{"inputs":[{"internalType":"uint256","name":"index","type":"uint256"}],"name":"getProportion","outputs":[{"internalType":"uint256","name":"","type":"uint256"}],"stateMutability":"view","type":"function"},{"inputs":[],"name":"i","outputs":[{"internalType":"uint256","name":"","type":"uint256"}],"stateMutability":"view","type":"function"},{"inputs":[],"name":"poolFee","outputs":[{"internalType":"uint24","name":"","type":"uint24"}],"stateMutability":"view","type":"function"},{"inputs":[{"internalType":"uint256","name":"","type":"uint256"}],"name":"priceFeeds","outputs":[{"internalType":"contract AggregatorV3Interface","name":"","type":"address"}],"stateMutability":"view","type":"function"},{"inputs":[],"name":"routerAddress","outputs":[{"internalType":"address","name":"","type":"address"}],"stateMutability":"view","type":"function"},{"inputs":[{"internalType":"address","name":"recipient","type":"address"},{"internalType":"uint256","name":"_amountIn","type":"uint256"},{"internalType":"uint256","name":"j","type":"uint256"}],"name":"sell_swap","outputs":[{"internalType":"uint256","name":"","type":"uint256"}],"stateMutability":"nonpayable","type":"function"},{"inputs":[{"internalType":"address","name":"_vault","type":"address"}],"name":"setVaultAddress","outputs":[],"stateMutability":"nonpayable","type":"function"},{"inputs":[],"name":"swapRouter","outputs":[{"internalType":"contract ISwapRouter","name":"","type":"address"}],"stateMutability":"view","type":"function"},{"inputs":[{"internalType":"uint256","name":"","type":"uint256"}],"name":"tokenAddresses","outputs":[{"internalType":"address","name":"","type":"address"}],"stateMutability":"view","type":"function"},{"inputs":[],"name":"tokenBalance","outputs":[{"internalType":"uint256","name":"","type":"uint256"}],"stateMutability":"view","type":"function"},{"inputs":[{"internalType":"address","name":"","type":"address"}],"name":"tokenBalances","outputs":[{"internalType":"uint256","name":"","type":"uint256"}],"stateMutability":"view","type":"function"},{"inputs":[],"name":"tokenPrice","outputs":[{"internalType":"uint256","name":"","type":"uint256"}],"stateMutability":"view","type":"function"},{"inputs":[],"name":"updateAssetValues","outputs":[],"stateMutability":"nonpayable","type":"function"},{"inputs":[],"name":"updatePoolValue","outputs":[{"internalType":"uint256","name":"","type":"uint256"}],"stateMutability":"nonpayable","type":"function"},{"inputs":[],"name":"updateTokenBalance","outputs":[],"stateMutability":"nonpayable","type":"function"},{"inputs":[],"name":"usdcToken","outputs":[{"internalType":"contract IERC20","name":"","type":"address"}],"stateMutability":"view","type":"function"},{"inputs":[],"name":"vaultAddress","outputs":[{"internalType":"address","name":"","type":"address"}],"stateMutability":"view","type":"function"},{"inputs":[],"name":"vaultcontract","outputs":[{"internalType":"contract VaultContract","name":"","type":"address"}],"stateMutability":"view","type":"function"}],"evm":{"bytecode":{"linkReferences":{},"object":"60a0604052601180546001600160a01b031916733c499c542cef5e3811e1192ce70d8cc03d5c335917905573e592427a0aece92de3edee1f18e0157c058615646080523480156200004f57600080fd5b5060405162000f9d38038062000f9d8339810160408190526200007291620002c9565b600f80546001600160a01b0383166001600160a01b0319918216811790925560108054909116909117905560216006819055600781905560085560408051600380825260808201909252906020820160608036833750508151620000de92600292506020019062000248565b507372484b12719e23115761d5da1646945632979bb660026000815481106200010b576200010b620002fb565b9060005260206000200160006101000a8154816001600160a01b0302191690836001600160a01b0316021790555073df0fb4e4f928d2dcb76f438575fdd8682386e13c6002600181548110620001655762000165620002fb565b9060005260206000200160006101000a8154816001600160a01b0302191690836001600160a01b0316021790555073d9ffdb71ebe7496cc440152d43986aae0ab7666560028081548110620001be57620001be620002fb565b600091825260209091200180546001600160a01b03929092166001600160a01b031992831617905560038054821673d6df932a45c0f255f85145f286ea0b292b21c90b17905560048054821673b33eaad8d922b1083446dc23f610c2567fb5180f179055600580549091167353e0bca35ec356bd5dddfebbd1fc0fd03fabad391790555062000311565b828054828255906000526020600020908101928215620002a0579160200282015b82811115620002a057825182546001600160a01b0319166001600160a01b0390911617825560209092019160019091019062000269565b50620002ae929150620002b2565b5090565b5b80821115620002ae5760008155600101620002b3565b600060208284031215620002dc57600080fd5b81516001600160a01b0381168114620002f457600080fd5b9392505050565b634e487b7160e01b600052603260045260246000fd5b608051610c546200034960003960008181610307015281816104d0015281816105df01528181610837015261094f0152610c546000f3fe608060405234801561001057600080fd5b50600436106101585760003560e01c80635b6e7be2116100c35780639e1a4d191161007c5780639e1a4d19146102f9578063c31c9c0714610302578063dd0466e114610329578063e2b2d38614610331578063e5aa3d5814610344578063e5df8b841461034d57600080fd5b80635b6e7be2146102785780637d864854146102805780637ff9b5961461029357806382c248291461029c57806385535cc5146102a457806389a30271146102de57600080fd5b80633bdfa043116101155780633bdfa0431461020c5780633feca937146102165780634191c45b14610229578063430bf08a1461023c5780634dfe4d981461024f578063523fba7f1461025857600080fd5b8063089fe6aa1461015d57806310c7f0b91461017f57806311eac855146101aa57806320c5b0ee146101bd5780633268cc56146101de578063346e5c37146101f9575b600080fd5b610166610bb881565b60405162ffffff90911681526020015b60405180910390f35b61019261018d3660046109ef565b610360565b6040516001600160a01b039091168152602001610176565b601154610192906001600160a01b031681565b6101d06101cb3660046109ef565b61038a565b604051908152602001610176565b61019273e592427a0aece92de3edee1f18e0157c0586156481565b6101d06102073660046109ef565b6103a1565b6102146103be565b005b6101d0610224366004610a24565b6104a1565b6101d06102373660046109ef565b610664565b600f54610192906001600160a01b031681565b6101d060005481565b6101d0610266366004610a57565b60016020526000908152604090205481565b610214610674565b601054610192906001600160a01b031681565b6101d0600e5481565b6002546101d0565b6102146102b2366004610a57565b600f80546001600160a01b039092166001600160a01b0319928316811790915560108054909216179055565b610192733c499c542cef5e3811e1192ce70d8cc03d5c335981565b6101d0600d5481565b6101927f000000000000000000000000000000000000000000000000000000000000000081565b6101d0610763565b6101d061033f366004610a79565b61081d565b6101d0600c5481565b61019261035b3660046109ef565b6109cf565b6002818154811061037057600080fd5b6000918252602090912001546001600160a01b0316905081565b6006816003811061039a57600080fd5b0154905081565b6000600682600381106103b6576103b6610a9b565b015492915050565b6000600c555b600254600c54101561049f5760006002600c54815481106103e7576103e7610a9b565b9060005260206000200160009054906101000a90046001600160a01b03166001600160a01b031663feaf968c6040518163ffffffff1660e01b815260040160a060405180830381865afa158015610442573d6000803e3d6000fd5b505050506040513d601f19601f820116820180604052508101906104669190610acb565b505050915050806009600c546003811061048257610482610a9b565b015550600c805490600061049583610b31565b91905055506103c4565b565b600080600383600381106104b7576104b7610a9b565b015460405163095ea7b360e01b81526001600160a01b037f000000000000000000000000000000000000000000000000000000000000000081166004830152602482018790529091169150819063095ea7b3906044016020604051808303816000875af115801561052c573d6000803e3d6000fd5b505050506040513d601f19601f820116820180604052508101906105509190610b4a565b5060006040518061010001604052806003866003811061057257610572610a9b565b01546001600160a01b039081168252733c499c542cef5e3811e1192ce70d8cc03d5c33596020830152610bb8604080840191909152898216606084015242608084015260a08301899052600060c0840181905260e09093018390525163414bf38960e01b815292935090917f00000000000000000000000000000000000000000000000000000000000000009091169063414bf38990610616908590600401610b6c565b6020604051808303816000875af1158015610635573d6000803e3d6000fd5b505050506040513d601f19601f820116820180604052508101906106599190610bd5565b979650505050505050565b6009816003811061039a57600080fd5b6000600c555b600254600c54101561049f5760006003600c546003811061069d5761069d610a9b565b0154600f546040516370a0823160e01b81526001600160a01b0391821660048201529116906370a0823190602401602060405180830381865afa1580156106e8573d6000803e3d6000fd5b505050506040513d601f19601f8201168201806040525081019061070c9190610bd5565b905080600160006003600c546003811061072857610728610a9b565b01546001600160a01b031681526020810191909152604001600090812091909155600c805492509061075983610b31565b919050555061067a565b6000808055610770610674565b6107786103be565b6000600c555b600254600c54101561081657600160006003600c54600381106107a3576107a3610a9b565b01546001600160a01b03168152602081019190915260400160002054600d55600c54600990600381106107d8576107d8610a9b565b0154600e819055600d546107ec9190610bee565b6000546107f99190610c0b565b6000908155600c80549161080c83610b31565b919050555061077e565b5060005490565b60115460405163095ea7b360e01b81526001600160a01b037f00000000000000000000000000000000000000000000000000000000000000008116600483015260248201859052600092169063095ea7b3906044016020604051808303816000875af1158015610891573d6000803e3d6000fd5b505050506040513d601f19601f820116820180604052508101906108b59190610b4a565b506000604051806101000160405280733c499c542cef5e3811e1192ce70d8cc03d5c33596001600160a01b03168152602001600385600381106108fa576108fa610a9b565b01546001600160a01b039081168252610bb86020830152600f54811660408084019190915242606084015260808301889052600060a0840181905260c090930192909252905163414bf38960e01b81529192507f0000000000000000000000000000000000000000000000000000000000000000169063414bf38990610984908490600401610b6c565b6020604051808303816000875af11580156109a3573d6000803e3d6000fd5b505050506040513d601f19601f820116820180604052508101906109c79190610bd5565b949350505050565b600381600381106109df57600080fd5b01546001600160a01b0316905081565b600060208284031215610a0157600080fd5b5035919050565b80356001600160a01b0381168114610a1f57600080fd5b919050565b600080600060608486031215610a3957600080fd5b610a4284610a08565b95602085013595506040909401359392505050565b600060208284031215610a6957600080fd5b610a7282610a08565b9392505050565b60008060408385031215610a8c57600080fd5b50508035926020909101359150565b634e487b7160e01b600052603260045260246000fd5b805169ffffffffffffffffffff81168114610a1f57600080fd5b600080600080600060a08688031215610ae357600080fd5b610aec86610ab1565b9450602086015193506040860151925060608601519150610b0f60808701610ab1565b90509295509295909350565b634e487b7160e01b600052601160045260246000fd5b600060018201610b4357610b43610b1b565b5060010190565b600060208284031215610b5c57600080fd5b81518015158114610a7257600080fd5b81516001600160a01b03908116825260208084015182169083015260408084015162ffffff16908301526060808401518216908301526080808401519083015260a0838101519083015260c0808401519083015260e09283015116918101919091526101000190565b600060208284031215610be757600080fd5b5051919050565b8082028115828204841417610c0557610c05610b1b565b92915050565b80820180821115610c0557610c05610b1b56fea26469706673582212206fd8c3c72f3eaf7701ffc61af46664a24464f35da83b847d5c203d51164ef86d64736f6c63430008150033","opcodes":"PUSH1 0xA0 PUSH1 0x40 MSTORE PUSH1 0x11 DUP1 SLOAD PUSH1 0x1 PUSH1 0x1 PUSH1 0xA0 SHL SUB NOT AND PUSH20 0x3C499C542CEF5E3811E1192CE70D8CC03D5C3359 OR SWAP1 SSTORE PUSH20 0xE592427A0AECE92DE3EDEE1F18E0157C05861564 PUSH1 0x80 MSTORE CALLVALUE DUP1 ISZERO PUSH3 0x4F JUMPI PUSH1 0x0 DUP1 REVERT JUMPDEST POP PUSH1 0x40 MLOAD PUSH3 0xF9D CODESIZE SUB DUP1 PUSH3 0xF9D DUP4 CODECOPY DUP2 ADD PUSH1 0x40 DUP2 SWAP1 MSTORE PUSH3 0x72 SWAP2 PUSH3 0x2C9 JUMP JUMPDEST PUSH1 0xF DUP1 SLOAD PUSH1 0x1 PUSH1 0x1 PUSH1 0xA0 SHL SUB DUP4 AND PUSH1 0x1 PUSH1 0x1 PUSH1 0xA0 SHL SUB NOT SWAP2 DUP3 AND DUP2 OR SWAP1 SWAP3 SSTORE PUSH1 0x10 DUP1 SLOAD SWAP1 SWAP2 AND SWAP1 SWAP2 OR SWAP1 SSTORE PUSH1 0x21 PUSH1 0x6 DUP2 SWAP1 SSTORE PUSH1 0x7 DUP2 SWAP1 SSTORE PUSH1 0x8 SSTORE PUSH1 0x40 DUP1 MLOAD PUSH1 0x3 DUP1 DUP3 MSTORE PUSH1 0x80 DUP3 ADD SWAP1 SWAP3 MSTORE SWAP1 PUSH1 0x20 DUP3 ADD PUSH1 0x60 DUP1 CALLDATASIZE DUP4 CALLDATACOPY POP POP DUP2 MLOAD PUSH3 0xDE SWAP3 PUSH1 0x2 SWAP3 POP PUSH1 0x20 ADD SWAP1 PUSH3 0x248 JUMP JUMPDEST POP PUSH20 0x72484B12719E23115761D5DA1646945632979BB6 PUSH1 0x2 PUSH1 0x0 DUP2 SLOAD DUP2 LT PUSH3 0x10B JUMPI PUSH3 0x10B PUSH3 0x2FB JUMP JUMPDEST SWAP1 PUSH1 0x0 MSTORE PUSH1 0x20 PUSH1 0x0 KECCAK256 ADD PUSH1 0x0 PUSH2 0x100 EXP DUP2 SLOAD DUP2 PUSH1 0x1 PUSH1 0x1 PUSH1 0xA0 SHL SUB MUL NOT AND SWAP1 DUP4 PUSH1 0x1 PUSH1 0x1 PUSH1 0xA0 SHL SUB AND MUL OR SWAP1 SSTORE POP PUSH20 0xDF0FB4E4F928D2DCB76F438575FDD8682386E13C PUSH1 0x2 PUSH1 0x1 DUP2 SLOAD DUP2 LT PUSH3 0x165 JUMPI PUSH3 0x165 PUSH3 0x2FB JUMP JUMPDEST SWAP1 PUSH1 0x0 MSTORE PUSH1 0x20 PUSH1 0x0 KECCAK256 ADD PUSH1 0x0 PUSH2 0x100 EXP DUP2 SLOAD DUP2 PUSH1 0x1 PUSH1 0x1 PUSH1 0xA0 SHL SUB MUL NOT AND SWAP1 DUP4 PUSH1 0x1 PUSH1 0x1 PUSH1 0xA0 SHL SUB AND MUL OR SWAP1 SSTORE POP PUSH20 0xD9FFDB71EBE7496CC440152D43986AAE0AB76665 PUSH1 0x2 DUP1 DUP2 SLOAD DUP2 LT PUSH3 0x1BE JUMPI PUSH3 0x1BE PUSH3 0x2FB JUMP JUMPDEST PUSH1 0x0 SWAP2 DUP3 MSTORE PUSH1 0x20 SWAP1 SWAP2 KECCAK256 ADD DUP1 SLOAD PUSH1 0x1 PUSH1 0x1 PUSH1 0xA0 SHL SUB SWAP3 SWAP1 SWAP3 AND PUSH1 0x1 PUSH1 0x1 PUSH1 0xA0 SHL SUB NOT SWAP3 DUP4 AND OR SWAP1 SSTORE PUSH1 0x3 DUP1 SLOAD DUP3 AND PUSH20 0xD6DF932A45C0F255F85145F286EA0B292B21C90B OR SWAP1 SSTORE PUSH1 0x4 DUP1 SLOAD DUP3 AND PUSH20 0xB33EAAD8D922B1083446DC23F610C2567FB5180F OR SWAP1 SSTORE PUSH1 0x5 DUP1 SLOAD SWAP1 SWAP2 AND PUSH20 0x53E0BCA35EC356BD5DDDFEBBD1FC0FD03FABAD39 OR SWAP1 SSTORE POP PUSH3 0x311 JUMP JUMPDEST DUP3 DUP1 SLOAD DUP3 DUP3 SSTORE SWAP1 PUSH1 0x0 MSTORE PUSH1 0x20 PUSH1 0x0 KECCAK256 SWAP1 DUP2 ADD SWAP3 DUP3 ISZERO PUSH3 0x2A0 JUMPI SWAP2 PUSH1 0x20 MUL DUP3 ADD JUMPDEST DUP3 DUP2 GT ISZERO PUSH3 0x2A0 JUMPI DUP3 MLOAD DUP3 SLOAD PUSH1 0x1 PUSH1 0x1 PUSH1 0xA0 SHL SUB NOT AND PUSH1 0x1 PUSH1 0x1 PUSH1 0xA0 SHL SUB SWAP1 SWAP2 AND OR DUP3 SSTORE PUSH1 0x20 SWAP1 SWAP3 ADD SWAP2 PUSH1 0x1 SWAP1 SWAP2 ADD SWAP1 PUSH3 0x269 JUMP JUMPDEST POP PUSH3 0x2AE SWAP3 SWAP2 POP PUSH3 0x2B2 JUMP JUMPDEST POP SWAP1 JUMP JUMPDEST JUMPDEST DUP1 DUP3 GT ISZERO PUSH3 0x2AE JUMPI PUSH1 0x0 DUP2 SSTORE PUSH1 0x1 ADD PUSH3 0x2B3 JUMP JUMPDEST PUSH1 0x0 PUSH1 0x20 DUP3 DUP5 SUB SLT ISZERO PUSH3 0x2DC JUMPI PUSH1 0x0 DUP1 REVERT JUMPDEST DUP2 MLOAD PUSH1 0x1 PUSH1 0x1 PUSH1 0xA0 SHL SUB DUP2 AND DUP2 EQ PUSH3 0x2F4 JUMPI PUSH1 0x0 DUP1 REVERT JUMPDEST SWAP4 SWAP3 POP POP POP JUMP JUMPDEST PUSH4 0x4E487B71 PUSH1 0xE0 SHL PUSH1 0x0 MSTORE PUSH1 0x32 PUSH1 0x4 MSTORE PUSH1 0x24 PUSH1 0x0 REVERT JUMPDEST PUSH1 0x80 MLOAD PUSH2 0xC54 PUSH3 0x349 PUSH1 0x0 CODECOPY PUSH1 0x0 DUP2 DUP2 PUSH2 0x307 ADD MSTORE DUP2 DUP2 PUSH2 0x4D0 ADD MSTORE DUP2 DUP2 PUSH2 0x5DF ADD MSTORE DUP2 DUP2 PUSH2 0x837 ADD MSTORE PUSH2 0x94F ADD MSTORE PUSH2 0xC54 PUSH1 0x0 RETURN INVALID PUSH1 0x80 PUSH1 0x40 MSTORE CALLVALUE DUP1 ISZERO PUSH2 0x10 JUMPI PUSH1 0x0 DUP1 REVERT JUMPDEST POP PUSH1 0x4 CALLDATASIZE LT PUSH2 0x158 JUMPI PUSH1 0x0 CALLDATALOAD PUSH1 0xE0 SHR DUP1 PUSH4 0x5B6E7BE2 GT PUSH2 0xC3 JUMPI DUP1 PUSH4 0x9E1A4D19 GT PUSH2 0x7C JUMPI DUP1 PUSH4 0x9E1A4D19 EQ PUSH2 0x2F9 JUMPI DUP1 PUSH4 0xC31C9C07 EQ PUSH2 0x302 JUMPI DUP1 PUSH4 0xDD0466E1 EQ PUSH2 0x329 JUMPI DUP1 PUSH4 0xE2B2D386 EQ PUSH2 0x331 JUMPI DUP1 PUSH4 0xE5AA3D58 EQ PUSH2 0x344 JUMPI DUP1 PUSH4 0xE5DF8B84 EQ PUSH2 0x34D JUMPI PUSH1 0x0 DUP1 REVERT JUMPDEST DUP1 PUSH4 0x5B6E7BE2 EQ PUSH2 0x278 JUMPI DUP1 PUSH4 0x7D864854 EQ PUSH2 0x280 JUMPI DUP1 PUSH4 0x7FF9B596 EQ PUSH2 0x293 JUMPI DUP1 PUSH4 0x82C24829 EQ PUSH2 0x29C JUMPI DUP1 PUSH4 0x85535CC5 EQ PUSH2 0x2A4 JUMPI DUP1 PUSH4 0x89A30271 EQ PUSH2 0x2DE JUMPI PUSH1 0x0 DUP1 REVERT JUMPDEST DUP1 PUSH4 0x3BDFA043 GT PUSH2 0x115 JUMPI DUP1 PUSH4 0x3BDFA043 EQ PUSH2 0x20C JUMPI DUP1 PUSH4 0x3FECA937 EQ PUSH2 0x216 JUMPI DUP1 PUSH4 0x4191C45B EQ PUSH2 0x229 JUMPI DUP1 PUSH4 0x430BF08A EQ PUSH2 0x23C JUMPI DUP1 PUSH4 0x4DFE4D98 EQ PUSH2 0x24F JUMPI DUP1 PUSH4 0x523FBA7F EQ PUSH2 0x258 JUMPI PUSH1 0x0 DUP1 REVERT JUMPDEST DUP1 PUSH4 0x89FE6AA EQ PUSH2 0x15D JUMPI DUP1 PUSH4 0x10C7F0B9 EQ PUSH2 0x17F JUMPI DUP1 PUSH4 0x11EAC855 EQ PUSH2 0x1AA JUMPI DUP1 PUSH4 0x20C5B0EE EQ PUSH2 0x1BD JUMPI DUP1 PUSH4 0x3268CC56 EQ PUSH2 0x1DE JUMPI DUP1 PUSH4 0x346E5C37 EQ PUSH2 0x1F9 JUMPI JUMPDEST PUSH1 0x0 DUP1 REVERT JUMPDEST PUSH2 0x166 PUSH2 0xBB8 DUP2 JUMP JUMPDEST PUSH1 0x40 MLOAD PUSH3 0xFFFFFF SWAP1 SWAP2 AND DUP2 MSTORE PUSH1 0x20 ADD JUMPDEST PUSH1 0x40 MLOAD DUP1 SWAP2 SUB SWAP1 RETURN JUMPDEST PUSH2 0x192 PUSH2 0x18D CALLDATASIZE PUSH1 0x4 PUSH2 0x9EF JUMP JUMPDEST PUSH2 0x360 JUMP JUMPDEST PUSH1 0x40 MLOAD PUSH1 0x1 PUSH1 0x1 PUSH1 0xA0 SHL SUB SWAP1 SWAP2 AND DUP2 MSTORE PUSH1 0x20 ADD PUSH2 0x176 JUMP JUMPDEST PUSH1 0x11 SLOAD PUSH2 0x192 SWAP1 PUSH1 0x1 PUSH1 0x1 PUSH1 0xA0 SHL SUB AND DUP2 JUMP JUMPDEST PUSH2 0x1D0 PUSH2 0x1CB CALLDATASIZE PUSH1 0x4 PUSH2 0x9EF JUMP JUMPDEST PUSH2 0x38A JUMP JUMPDEST PUSH1 0x40 MLOAD SWAP1 DUP2 MSTORE PUSH1 0x20 ADD PUSH2 0x176 JUMP JUMPDEST PUSH2 0x192 PUSH20 0xE592427A0AECE92DE3EDEE1F18E0157C05861564 DUP2 JUMP JUMPDEST PUSH2 0x1D0 PUSH2 0x207 CALLDATASIZE PUSH1 0x4 PUSH2 0x9EF JUMP JUMPDEST PUSH2 0x3A1 JUMP JUMPDEST PUSH2 0x214 PUSH2 0x3BE JUMP JUMPDEST STOP JUMPDEST PUSH2 0x1D0 PUSH2 0x224 CALLDATASIZE PUSH1 0x4 PUSH2 0xA24 JUMP JUMPDEST PUSH2 0x4A1 JUMP JUMPDEST PUSH2 0x1D0 PUSH2 0x237 CALLDATASIZE PUSH1 0x4 PUSH2 0x9EF JUMP JUMPDEST PUSH2 0x664 JUMP JUMPDEST PUSH1 0xF SLOAD PUSH2 0x192 SWAP1 PUSH1 0x1 PUSH1 0x1 PUSH1 0xA0 SHL SUB AND DUP2 JUMP JUMPDEST PUSH2 0x1D0 PUSH1 0x0 SLOAD DUP2 JUMP JUMPDEST PUSH2 0x1D0 PUSH2 0x266 CALLDATASIZE PUSH1 0x4 PUSH2 0xA57 JUMP JUMPDEST PUSH1 0x1 PUSH1 0x20 MSTORE PUSH1 0x0 SWAP1 DUP2 MSTORE PUSH1 0x40 SWAP1 KECCAK256 SLOAD DUP2 JUMP JUMPDEST PUSH2 0x214 PUSH2 0x674 JUMP JUMPDEST PUSH1 0x10 SLOAD PUSH2 0x192 SWAP1 PUSH1 0x1 PUSH1 0x1 PUSH1 0xA0 SHL SUB AND DUP2 JUMP JUMPDEST PUSH2 0x1D0 PUSH1 0xE SLOAD DUP2 JUMP JUMPDEST PUSH1 0x2 SLOAD PUSH2 0x1D0 JUMP JUMPDEST PUSH2 0x214 PUSH2 0x2B2 CALLDATASIZE PUSH1 0x4 PUSH2 0xA57 JUMP JUMPDEST PUSH1 0xF DUP1 SLOAD PUSH1 0x1 PUSH1 0x1 PUSH1 0xA0 SHL SUB SWAP1 SWAP3 AND PUSH1 0x1 PUSH1 0x1 PUSH1 0xA0 SHL SUB NOT SWAP3 DUP4 AND DUP2 OR SWAP1 SWAP2 SSTORE PUSH1 0x10 DUP1 SLOAD SWAP1 SWAP3 AND OR SWAP1 SSTORE JUMP JUMPDEST PUSH2 0x192 PUSH20 0x3C499C542CEF5E3811E1192CE70D8CC03D5C3359 DUP2 JUMP JUMPDEST PUSH2 0x1D0 PUSH1 0xD SLOAD DUP2 JUMP JUMPDEST PUSH2 0x192 PUSH32 0x0 DUP2 JUMP JUMPDEST PUSH2 0x1D0 PUSH2 0x763 JUMP JUMPDEST PUSH2 0x1D0 PUSH2 0x33F CALLDATASIZE PUSH1 0x4 PUSH2 0xA79 JUMP JUMPDEST PUSH2 0x81D JUMP JUMPDEST PUSH2 0x1D0 PUSH1 0xC SLOAD DUP2 JUMP JUMPDEST PUSH2 0x192 PUSH2 0x35B CALLDATASIZE PUSH1 0x4 PUSH2 0x9EF JUMP JUMPDEST PUSH2 0x9CF JUMP JUMPDEST PUSH1 0x2 DUP2 DUP2 SLOAD DUP2 LT PUSH2 0x370 JUMPI PUSH1 0x0 DUP1 REVERT JUMPDEST PUSH1 0x0 SWAP2 DUP3 MSTORE PUSH1 0x20 SWAP1 SWAP2 KECCAK256 ADD SLOAD PUSH1 0x1 PUSH1 0x1 PUSH1 0xA0 SHL SUB AND SWAP1 POP DUP2 JUMP JUMPDEST PUSH1 0x6 DUP2 PUSH1 0x3 DUP2 LT PUSH2 0x39A JUMPI PUSH1 0x0 DUP1 REVERT JUMPDEST ADD SLOAD SWAP1 POP DUP2 JUMP JUMPDEST PUSH1 0x0 PUSH1 0x6 DUP3 PUSH1 0x3 DUP2 LT PUSH2 0x3B6 JUMPI PUSH2 0x3B6 PUSH2 0xA9B JUMP JUMPDEST ADD SLOAD SWAP3 SWAP2 POP POP JUMP JUMPDEST PUSH1 0x0 PUSH1 0xC SSTORE JUMPDEST PUSH1 0x2 SLOAD PUSH1 0xC SLOAD LT ISZERO PUSH2 0x49F JUMPI PUSH1 0x0 PUSH1 0x2 PUSH1 0xC SLOAD DUP2 SLOAD DUP2 LT PUSH2 0x3E7 JUMPI PUSH2 0x3E7 PUSH2 0xA9B JUMP JUMPDEST SWAP1 PUSH1 0x0 MSTORE PUSH1 0x20 PUSH1 0x0 KECCAK256 ADD PUSH1 0x0 SWAP1 SLOAD SWAP1 PUSH2 0x100 EXP SWAP1 DIV PUSH1 0x1 PUSH1 0x1 PUSH1 0xA0 SHL SUB AND PUSH1 0x1 PUSH1 0x1 PUSH1 0xA0 SHL SUB AND PUSH4 0xFEAF968C PUSH1 0x40 MLOAD DUP2 PUSH4 0xFFFFFFFF AND PUSH1 0xE0 SHL DUP2 MSTORE PUSH1 0x4 ADD PUSH1 0xA0 PUSH1 0x40 MLOAD DUP1 DUP4 SUB DUP2 DUP7 GAS STATICCALL ISZERO DUP1 ISZERO PUSH2 0x442 JUMPI RETURNDATASIZE PUSH1 0x0 DUP1 RETURNDATACOPY RETURNDATASIZE PUSH1 0x0 REVERT JUMPDEST POP POP POP POP PUSH1 0x40 MLOAD RETURNDATASIZE PUSH1 0x1F NOT PUSH1 0x1F DUP3 ADD AND DUP3 ADD DUP1 PUSH1 0x40 MSTORE POP DUP2 ADD SWAP1 PUSH2 0x466 SWAP2 SWAP1 PUSH2 0xACB JUMP JUMPDEST POP POP POP SWAP2 POP POP DUP1 PUSH1 0x9 PUSH1 0xC SLOAD PUSH1 0x3 DUP2 LT PUSH2 0x482 JUMPI PUSH2 0x482 PUSH2 0xA9B JUMP JUMPDEST ADD SSTORE POP PUSH1 0xC DUP1 SLOAD SWAP1 PUSH1 0x0 PUSH2 0x495 DUP4 PUSH2 0xB31 JUMP JUMPDEST SWAP2 SWAP1 POP SSTORE POP PUSH2 0x3C4 JUMP JUMPDEST JUMP JUMPDEST PUSH1 0x0 DUP1 PUSH1 0x3 DUP4 PUSH1 0x3 DUP2 LT PUSH2 0x4B7 JUMPI PUSH2 0x4B7 PUSH2 0xA9B JUMP JUMPDEST ADD SLOAD PUSH1 0x40 MLOAD PUSH4 0x95EA7B3 PUSH1 0xE0 SHL DUP2 MSTORE PUSH1 0x1 PUSH1 0x1 PUSH1 0xA0 SHL SUB PUSH32 0x0 DUP2 AND PUSH1 0x4 DUP4 ADD MSTORE PUSH1 0x24 DUP3 ADD DUP8 SWAP1 MSTORE SWAP1 SWAP2 AND SWAP2 POP DUP2 SWAP1 PUSH4 0x95EA7B3 SWAP1 PUSH1 0x44 ADD PUSH1 0x20 PUSH1 0x40 MLOAD DUP1 DUP4 SUB DUP2 PUSH1 0x0 DUP8 GAS CALL ISZERO DUP1 ISZERO PUSH2 0x52C JUMPI RETURNDATASIZE PUSH1 0x0 DUP1 RETURNDATACOPY RETURNDATASIZE PUSH1 0x0 REVERT JUMPDEST POP POP POP POP PUSH1 0x40 MLOAD RETURNDATASIZE PUSH1 0x1F NOT PUSH1 0x1F DUP3 ADD AND DUP3 ADD DUP1 PUSH1 0x40 MSTORE POP DUP2 ADD SWAP1 PUSH2 0x550 SWAP2 SWAP1 PUSH2 0xB4A JUMP JUMPDEST POP PUSH1 0x0 PUSH1 0x40 MLOAD DUP1 PUSH2 0x100 ADD PUSH1 0x40 MSTORE DUP1 PUSH1 0x3 DUP7 PUSH1 0x3 DUP2 LT PUSH2 0x572 JUMPI PUSH2 0x572 PUSH2 0xA9B JUMP JUMPDEST ADD SLOAD PUSH1 0x1 PUSH1 0x1 PUSH1 0xA0 SHL SUB SWAP1 DUP2 AND DUP3 MSTORE PUSH20 0x3C499C542CEF5E3811E1192CE70D8CC03D5C3359 PUSH1 0x20 DUP4 ADD MSTORE PUSH2 0xBB8 PUSH1 0x40 DUP1 DUP5 ADD SWAP2 SWAP1 SWAP2 MSTORE DUP10 DUP3 AND PUSH1 0x60 DUP5 ADD MSTORE TIMESTAMP PUSH1 0x80 DUP5 ADD MSTORE PUSH1 0xA0 DUP4 ADD DUP10 SWAP1 MSTORE PUSH1 0x0 PUSH1 0xC0 DUP5 ADD DUP2 SWAP1 MSTORE PUSH1 0xE0 SWAP1 SWAP4 ADD DUP4 SWAP1 MSTORE MLOAD PUSH4 0x414BF389 PUSH1 0xE0 SHL DUP2 MSTORE SWAP3 SWAP4 POP SWAP1 SWAP2 PUSH32 0x0 SWAP1 SWAP2 AND SWAP1 PUSH4 0x414BF389 SWAP1 PUSH2 0x616 SWAP1 DUP6 SWAP1 PUSH1 0x4 ADD PUSH2 0xB6C JUMP JUMPDEST PUSH1 0x20 PUSH1 0x40 MLOAD DUP1 DUP4 SUB DUP2 PUSH1 0x0 DUP8 GAS CALL ISZERO DUP1 ISZERO PUSH2 0x635 JUMPI RETURNDATASIZE PUSH1 0x0 DUP1 RETURNDATACOPY RETURNDATASIZE PUSH1 0x0 REVERT JUMPDEST POP POP POP POP PUSH1 0x40 MLOAD RETURNDATASIZE PUSH1 0x1F NOT PUSH1 0x1F DUP3 ADD AND DUP3 ADD DUP1 PUSH1 0x40 MSTORE POP DUP2 ADD SWAP1 PUSH2 0x659 SWAP2 SWAP1 PUSH2 0xBD5 JUMP JUMPDEST SWAP8 SWAP7 POP POP POP POP POP POP POP JUMP JUMPDEST PUSH1 0x9 DUP2 PUSH1 0x3 DUP2 LT PUSH2 0x39A JUMPI PUSH1 0x0 DUP1 REVERT JUMPDEST PUSH1 0x0 PUSH1 0xC SSTORE JUMPDEST PUSH1 0x2 SLOAD PUSH1 0xC SLOAD LT ISZERO PUSH2 0x49F JUMPI PUSH1 0x0 PUSH1 0x3 PUSH1 0xC SLOAD PUSH1 0x3 DUP2 LT PUSH2 0x69D JUMPI PUSH2 0x69D PUSH2 0xA9B JUMP JUMPDEST ADD SLOAD PUSH1 0xF SLOAD PUSH1 0x40 MLOAD PUSH4 0x70A08231 PUSH1 0xE0 SHL DUP2 MSTORE PUSH1 0x1 PUSH1 0x1 PUSH1 0xA0 SHL SUB SWAP2 DUP3 AND PUSH1 0x4 DUP3 ADD MSTORE SWAP2 AND SWAP1 PUSH4 0x70A08231 SWAP1 PUSH1 0x24 ADD PUSH1 0x20 PUSH1 0x40 MLOAD DUP1 DUP4 SUB DUP2 DUP7 GAS STATICCALL ISZERO DUP1 ISZERO PUSH2 0x6E8 JUMPI RETURNDATASIZE PUSH1 0x0 DUP1 RETURNDATACOPY RETURNDATASIZE PUSH1 0x0 REVERT JUMPDEST POP POP POP POP PUSH1 0x40 MLOAD RETURNDATASIZE PUSH1 0x1F NOT PUSH1 0x1F DUP3 ADD AND DUP3 ADD DUP1 PUSH1 0x40 MSTORE POP DUP2 ADD SWAP1 PUSH2 0x70C SWAP2 SWAP1 PUSH2 0xBD5 JUMP JUMPDEST SWAP1 POP DUP1 PUSH1 0x1 PUSH1 0x0 PUSH1 0x3 PUSH1 0xC SLOAD PUSH1 0x3 DUP2 LT PUSH2 0x728 JUMPI PUSH2 0x728 PUSH2 0xA9B JUMP JUMPDEST ADD SLOAD PUSH1 0x1 PUSH1 0x1 PUSH1 0xA0 SHL SUB AND DUP2 MSTORE PUSH1 0x20 DUP2 ADD SWAP2 SWAP1 SWAP2 MSTORE PUSH1 0x40 ADD PUSH1 0x0 SWAP1 DUP2 KECCAK256 SWAP2 SWAP1 SWAP2 SSTORE PUSH1 0xC DUP1 SLOAD SWAP3 POP SWAP1 PUSH2 0x759 DUP4 PUSH2 0xB31 JUMP JUMPDEST SWAP2 SWAP1 POP SSTORE POP PUSH2 0x67A JUMP JUMPDEST PUSH1 0x0 DUP1 DUP1 SSTORE PUSH2 0x770 PUSH2 0x674 JUMP JUMPDEST PUSH2 0x778 PUSH2 0x3BE JUMP JUMPDEST PUSH1 0x0 PUSH1 0xC SSTORE JUMPDEST PUSH1 0x2 SLOAD PUSH1 0xC SLOAD LT ISZERO PUSH2 0x816 JUMPI PUSH1 0x1 PUSH1 0x0 PUSH1 0x3 PUSH1 0xC SLOAD PUSH1 0x3 DUP2 LT PUSH2 0x7A3 JUMPI PUSH2 0x7A3 PUSH2 0xA9B JUMP JUMPDEST ADD SLOAD PUSH1 0x1 PUSH1 0x1 PUSH1 0xA0 SHL SUB AND DUP2 MSTORE PUSH1 0x20 DUP2 ADD SWAP2 SWAP1 SWAP2 MSTORE PUSH1 0x40 ADD PUSH1 0x0 KECCAK256 SLOAD PUSH1 0xD SSTORE PUSH1 0xC SLOAD PUSH1 0x9 SWAP1 PUSH1 0x3 DUP2 LT PUSH2 0x7D8 JUMPI PUSH2 0x7D8 PUSH2 0xA9B JUMP JUMPDEST ADD SLOAD PUSH1 0xE DUP2 SWAP1 SSTORE PUSH1 0xD SLOAD PUSH2 0x7EC SWAP2 SWAP1 PUSH2 0xBEE JUMP JUMPDEST PUSH1 0x0 SLOAD PUSH2 0x7F9 SWAP2 SWAP1 PUSH2 0xC0B JUMP JUMPDEST PUSH1 0x0 SWAP1 DUP2 SSTORE PUSH1 0xC DUP1 SLOAD SWAP2 PUSH2 0x80C DUP4 PUSH2 0xB31 JUMP JUMPDEST SWAP2 SWAP1 POP SSTORE POP PUSH2 0x77E JUMP JUMPDEST POP PUSH1 0x0 SLOAD SWAP1 JUMP JUMPDEST PUSH1 0x11 SLOAD PUSH1 0x40 MLOAD PUSH4 0x95EA7B3 PUSH1 0xE0 SHL DUP2 MSTORE PUSH1 0x1 PUSH1 0x1 PUSH1 0xA0 SHL SUB PUSH32 0x0 DUP2 AND PUSH1 0x4 DUP4 ADD MSTORE PUSH1 0x24 DUP3 ADD DUP6 SWAP1 MSTORE PUSH1 0x0 SWAP3 AND SWAP1 PUSH4 0x95EA7B3 SWAP1 PUSH1 0x44 ADD PUSH1 0x20 PUSH1 0x40 MLOAD DUP1 DUP4 SUB DUP2 PUSH1 0x0 DUP8 GAS CALL ISZERO DUP1 ISZERO PUSH2 0x891 JUMPI RETURNDATASIZE PUSH1 0x0 DUP1 RETURNDATACOPY RETURNDATASIZE PUSH1 0x0 REVERT JUMPDEST POP POP POP POP PUSH1 0x40 MLOAD RETURNDATASIZE PUSH1 0x1F NOT PUSH1 0x1F DUP3 ADD AND DUP3 ADD DUP1 PUSH1 0x40 MSTORE POP DUP2 ADD SWAP1 PUSH2 0x8B5 SWAP2 SWAP1 PUSH2 0xB4A JUMP JUMPDEST POP PUSH1 0x0 PUSH1 0x40 MLOAD DUP1 PUSH2 0x100 ADD PUSH1 0x40 MSTORE DUP1 PUSH20 0x3C499C542CEF5E3811E1192CE70D8CC03D5C3359 PUSH1 0x1 PUSH1 0x1 PUSH1 0xA0 SHL SUB AND DUP2 MSTORE PUSH1 0x20 ADD PUSH1 0x3 DUP6 PUSH1 0x3 DUP2 LT PUSH2 0x8FA JUMPI PUSH2 0x8FA PUSH2 0xA9B JUMP JUMPDEST ADD SLOAD PUSH1 0x1 PUSH1 0x1 PUSH1 0xA0 SHL SUB SWAP1 DUP2 AND DUP3 MSTORE PUSH2 0xBB8 PUSH1 0x20 DUP4 ADD MSTORE PUSH1 0xF SLOAD DUP2 AND PUSH1 0x40 DUP1 DUP5 ADD SWAP2 SWAP1 SWAP2 MSTORE TIMESTAMP PUSH1 0x60 DUP5 ADD MSTORE PUSH1 0x80 DUP4 ADD DUP9 SWAP1 MSTORE PUSH1 0x0 PUSH1 0xA0 DUP5 ADD DUP2 SWAP1 MSTORE PUSH1 0xC0 SWAP1 SWAP4 ADD SWAP3 SWAP1 SWAP3 MSTORE SWAP1 MLOAD PUSH4 0x414BF389 PUSH1 0xE0 SHL DUP2 MSTORE SWAP2 SWAP3 POP PUSH32 0x0 AND SWAP1 PUSH4 0x414BF389 SWAP1 PUSH2 0x984 SWAP1 DUP5 SWAP1 PUSH1 0x4 ADD PUSH2 0xB6C JUMP JUMPDEST PUSH1 0x20 PUSH1 0x40 MLOAD DUP1 DUP4 SUB DUP2 PUSH1 0x0 DUP8 GAS CALL ISZERO DUP1 ISZERO PUSH2 0x9A3 JUMPI RETURNDATASIZE PUSH1 0x0 DUP1 RETURNDATACOPY RETURNDATASIZE PUSH1 0x0 REVERT JUMPDEST POP POP POP POP PUSH1 0x40 MLOAD RETURNDATASIZE PUSH1 0x1F NOT PUSH1 0x1F DUP3 ADD AND DUP3 ADD DUP1 PUSH1 0x40 MSTORE POP DUP2 ADD SWAP1 PUSH2 0x9C7 SWAP2 SWAP1 PUSH2 0xBD5 JUMP JUMPDEST SWAP5 SWAP4 POP POP POP POP JUMP JUMPDEST PUSH1 0x3 DUP2 PUSH1 0x3 DUP2 LT PUSH2 0x9DF JUMPI PUSH1 0x0 DUP1 REVERT JUMPDEST ADD SLOAD PUSH1 0x1 PUSH1 0x1 PUSH1 0xA0 SHL SUB AND SWAP1 POP DUP2 JUMP JUMPDEST PUSH1 0x0 PUSH1 0x20 DUP3 DUP5 SUB SLT ISZERO PUSH2 0xA01 JUMPI PUSH1 0x0 DUP1 REVERT JUMPDEST POP CALLDATALOAD SWAP2 SWAP1 POP JUMP JUMPDEST DUP1 CALLDATALOAD PUSH1 0x1 PUSH1 0x1 PUSH1 0xA0 SHL SUB DUP2 AND DUP2 EQ PUSH2 0xA1F JUMPI PUSH1 0x0 DUP1 REVERT JUMPDEST SWAP2 SWAP1 POP JUMP JUMPDEST PUSH1 0x0 DUP1 PUSH1 0x0 PUSH1 0x60 DUP5 DUP7 SUB SLT ISZERO PUSH2 0xA39 JUMPI PUSH1 0x0 DUP1 REVERT JUMPDEST PUSH2 0xA42 DUP5 PUSH2 0xA08 JUMP JUMPDEST SWAP6 PUSH1 0x20 DUP6 ADD CALLDATALOAD SWAP6 POP PUSH1 0x40 SWAP1 SWAP5 ADD CALLDATALOAD SWAP4 SWAP3 POP POP POP JUMP JUMPDEST PUSH1 0x0 PUSH1 0x20 DUP3 DUP5 SUB SLT ISZERO PUSH2 0xA69 JUMPI PUSH1 0x0 DUP1 REVERT JUMPDEST PUSH2 0xA72 DUP3 PUSH2 0xA08 JUMP JUMPDEST SWAP4 SWAP3 POP POP POP JUMP JUMPDEST PUSH1 0x0 DUP1 PUSH1 0x40 DUP4 DUP6 SUB SLT ISZERO PUSH2 0xA8C JUMPI PUSH1 0x0 DUP1 REVERT JUMPDEST POP POP DUP1 CALLDATALOAD SWAP3 PUSH1 0x20 SWAP1 SWAP2 ADD CALLDATALOAD SWAP2 POP JUMP JUMPDEST PUSH4 0x4E487B71 PUSH1 0xE0 SHL PUSH1 0x0 MSTORE PUSH1 0x32 PUSH1 0x4 MSTORE PUSH1 0x24 PUSH1 0x0 REVERT JUMPDEST DUP1 MLOAD PUSH10 0xFFFFFFFFFFFFFFFFFFFF DUP2 AND DUP2 EQ PUSH2 0xA1F JUMPI PUSH1 0x0 DUP1 REVERT JUMPDEST PUSH1 0x0 DUP1 PUSH1 0x0 DUP1 PUSH1 0x0 PUSH1 0xA0 DUP7 DUP9 SUB SLT ISZERO PUSH2 0xAE3 JUMPI PUSH1 0x0 DUP1 REVERT JUMPDEST PUSH2 0xAEC DUP7 PUSH2 0xAB1 JUMP JUMPDEST SWAP5 POP PUSH1 0x20 DUP7 ADD MLOAD SWAP4 POP PUSH1 0x40 DUP7 ADD MLOAD SWAP3 POP PUSH1 0x60 DUP7 ADD MLOAD SWAP2 POP PUSH2 0xB0F PUSH1 0x80 DUP8 ADD PUSH2 0xAB1 JUMP JUMPDEST SWAP1 POP SWAP3 SWAP6 POP SWAP3 SWAP6 SWAP1 SWAP4 POP JUMP JUMPDEST PUSH4 0x4E487B71 PUSH1 0xE0 SHL PUSH1 0x0 MSTORE PUSH1 0x11 PUSH1 0x4 MSTORE PUSH1 0x24 PUSH1 0x0 REVERT JUMPDEST PUSH1 0x0 PUSH1 0x1 DUP3 ADD PUSH2 0xB43 JUMPI PUSH2 0xB43 PUSH2 0xB1B JUMP JUMPDEST POP PUSH1 0x1 ADD SWAP1 JUMP JUMPDEST PUSH1 0x0 PUSH1 0x20 DUP3 DUP5 SUB SLT ISZERO PUSH2 0xB5C JUMPI PUSH1 0x0 DUP1 REVERT JUMPDEST DUP2 MLOAD DUP1 ISZERO ISZERO DUP2 EQ PUSH2 0xA72 JUMPI PUSH1 0x0 DUP1 REVERT JUMPDEST DUP2 MLOAD PUSH1 0x1 PUSH1 0x1 PUSH1 0xA0 SHL SUB SWAP1 DUP2 AND DUP3 MSTORE PUSH1 0x20 DUP1 DUP5 ADD MLOAD DUP3 AND SWAP1 DUP4 ADD MSTORE PUSH1 0x40 DUP1 DUP5 ADD MLOAD PUSH3 0xFFFFFF AND SWAP1 DUP4 ADD MSTORE PUSH1 0x60 DUP1 DUP5 ADD MLOAD DUP3 AND SWAP1 DUP4 ADD MSTORE PUSH1 0x80 DUP1 DUP5 ADD MLOAD SWAP1 DUP4 ADD MSTORE PUSH1 0xA0 DUP4 DUP2 ADD MLOAD SWAP1 DUP4 ADD MSTORE PUSH1 0xC0 DUP1 DUP5 ADD MLOAD SWAP1 DUP4 ADD MSTORE PUSH1 0xE0 SWAP3 DUP4 ADD MLOAD AND SWAP2 DUP2 ADD SWAP2 SWAP1 SWAP2 MSTORE PUSH2 0x100 ADD SWAP1 JUMP JUMPDEST PUSH1 0x0 PUSH1 0x20 DUP3 DUP5 SUB SLT ISZERO PUSH2 0xBE7 JUMPI PUSH1 0x0 DUP1 REVERT JUMPDEST POP MLOAD SWAP2 SWAP1 POP JUMP JUMPDEST DUP1 DUP3 MUL DUP2 ISZERO DUP3 DUP3 DIV DUP5 EQ OR PUSH2 0xC05 JUMPI PUSH2 0xC05 PUSH2 0xB1B JUMP JUMPDEST SWAP3 SWAP2 POP POP JUMP JUMPDEST DUP1 DUP3 ADD DUP1 DUP3 GT ISZERO PUSH2 0xC05 JUMPI PUSH2 0xC05 PUSH2 0xB1B JUMP INVALID LOG2 PUSH5 0x6970667358 0x22 SLT KECCAK256 PUSH16 0xD8C3C72F3EAF7701FFC61AF46664A244 PUSH5 0xF35DA83B84 PUSH30 0x5C203D51164EF86D64736F6C634300081500330000000000000000000000 "},"methodIdentifiers":{"Pool_Value()":"4dfe4d98","Proportion(uint256)":"20c5b0ee","USDC()":"89a30271","assetPrices(uint256)":"4191c45b","buy_swap(uint256,uint256)":"e2b2d386","getPriceFeedsLength()":"82c24829","getProportion(uint256)":"346e5c37","i()":"e5aa3d58","poolFee()":"089fe6aa","priceFeeds(uint256)":"10c7f0b9","routerAddress()":"3268cc56","sell_swap(address,uint256,uint256)":"3feca937","setVaultAddress(address)":"85535cc5","swapRouter()":"c31c9c07","tokenAddresses(uint256)":"e5df8b84","tokenBalance()":"9e1a4d19","tokenBalances(address)":"523fba7f","tokenPrice()":"7ff9b596","updateAssetValues()":"3bdfa043","updatePoolValue()":"dd0466e1","updateTokenBalance()":"5b6e7be2","usdcToken()":"11eac855","vaultAddress()":"430bf08a","vaultcontract()":"7d864854"}}}}}